{
  "_format": "hh-sol-artifact-1",
  "contractName": "mQuark",
  "sourceName": "contracts/mQuark/mQuark.sol",
  "abi": [
    {
      "inputs": [
        {
          "internalType": "contract ImQuarkControl",
          "name": "mQuarkControl_",
          "type": "address"
        }
      ],
      "stateMutability": "nonpayable",
      "type": "constructor"
    },
    {
      "inputs": [],
      "name": "AddedSlot",
      "type": "error"
    },
    {
      "inputs": [],
      "name": "BuyerIsNotOwner",
      "type": "error"
    },
    {
      "inputs": [],
      "name": "CallerNotAuthorized",
      "type": "error"
    },
    {
      "inputs": [],
      "name": "CollectionIsNotFreeForMint",
      "type": "error"
    },
    {
      "inputs": [],
      "name": "ExceedsLimit",
      "type": "error"
    },
    {
      "inputs": [],
      "name": "GivenTokenAddressNotRegistered",
      "type": "error"
    },
    {
      "inputs": [],
      "name": "InvalidCollectionId",
      "type": "error"
    },
    {
      "inputs": [],
      "name": "InvalidContractAddress",
      "type": "error"
    },
    {
      "inputs": [
        {
          "internalType": "uint256",
          "name": "templateId",
          "type": "uint256"
        },
        {
          "internalType": "uint256",
          "name": "collectionId",
          "type": "uint256"
        }
      ],
      "name": "InvalidId",
      "type": "error"
    },
    {
      "inputs": [],
      "name": "InvalidIdAmount",
      "type": "error"
    },
    {
      "inputs": [],
      "name": "InvalidTemplateId",
      "type": "error"
    },
    {
      "inputs": [],
      "name": "InvalidTokenAddress",
      "type": "error"
    },
    {
      "inputs": [],
      "name": "InvalidTokenId",
      "type": "error"
    },
    {
      "inputs": [],
      "name": "InvalidVariation",
      "type": "error"
    },
    {
      "inputs": [],
      "name": "LengthMismatch",
      "type": "error"
    },
    {
      "inputs": [
        {
          "internalType": "uint256",
          "name": "tokenId",
          "type": "uint256"
        }
      ],
      "name": "LockedNFT",
      "type": "error"
    },
    {
      "inputs": [],
      "name": "NonERC721Implementer",
      "type": "error"
    },
    {
      "inputs": [],
      "name": "NotEnoughSupply",
      "type": "error"
    },
    {
      "inputs": [],
      "name": "NotOwner",
      "type": "error"
    },
    {
      "inputs": [
        {
          "internalType": "address",
          "name": "operator",
          "type": "address"
        }
      ],
      "name": "OperatorNotAllowed",
      "type": "error"
    },
    {
      "inputs": [],
      "name": "ProjectIdZero",
      "type": "error"
    },
    {
      "inputs": [],
      "name": "SellerGivenURIMismatch",
      "type": "error"
    },
    {
      "inputs": [],
      "name": "SellerIsNotOwner",
      "type": "error"
    },
    {
      "inputs": [],
      "name": "UnexistingToken",
      "type": "error"
    },
    {
      "inputs": [],
      "name": "UnexsistingTokenMint",
      "type": "error"
    },
    {
      "inputs": [],
      "name": "UriSLotUnexist",
      "type": "error"
    },
    {
      "inputs": [],
      "name": "UsedSignature",
      "type": "error"
    },
    {
      "inputs": [],
      "name": "VerificationFailed",
      "type": "error"
    },
    {
      "inputs": [],
      "name": "WrongMintType",
      "type": "error"
    },
    {
      "anonymous": false,
      "inputs": [
        {
          "indexed": true,
          "internalType": "address",
          "name": "owner",
          "type": "address"
        },
        {
          "indexed": true,
          "internalType": "address",
          "name": "approved",
          "type": "address"
        },
        {
          "indexed": true,
          "internalType": "uint256",
          "name": "tokenId",
          "type": "uint256"
        }
      ],
      "name": "Approval",
      "type": "event"
    },
    {
      "anonymous": false,
      "inputs": [
        {
          "indexed": true,
          "internalType": "address",
          "name": "owner",
          "type": "address"
        },
        {
          "indexed": true,
          "internalType": "address",
          "name": "operator",
          "type": "address"
        },
        {
          "indexed": false,
          "internalType": "bool",
          "name": "approved",
          "type": "bool"
        }
      ],
      "name": "ApprovalForAll",
      "type": "event"
    },
    {
      "anonymous": false,
      "inputs": [
        {
          "indexed": false,
          "internalType": "uint256",
          "name": "projectId",
          "type": "uint256"
        },
        {
          "indexed": false,
          "internalType": "uint256",
          "name": "templateId",
          "type": "uint256"
        },
        {
          "indexed": false,
          "internalType": "uint256",
          "name": "collectionId",
          "type": "uint256"
        },
        {
          "indexed": false,
          "internalType": "uint256",
          "name": "collectionPrice",
          "type": "uint256"
        },
        {
          "indexed": false,
          "internalType": "uint16",
          "name": "totalSupply",
          "type": "uint16"
        },
        {
          "indexed": false,
          "internalType": "uint256",
          "name": "minId",
          "type": "uint256"
        },
        {
          "indexed": false,
          "internalType": "uint256",
          "name": "maxId",
          "type": "uint256"
        },
        {
          "indexed": false,
          "internalType": "string[]",
          "name": "collectionUris",
          "type": "string[]"
        },
        {
          "indexed": false,
          "internalType": "uint8",
          "name": "collectionType",
          "type": "uint8"
        }
      ],
      "name": "CollectionCreated",
      "type": "event"
    },
    {
      "anonymous": false,
      "inputs": [
        {
          "indexed": false,
          "internalType": "address",
          "name": "tokenContract",
          "type": "address"
        },
        {
          "indexed": false,
          "internalType": "string",
          "name": "templateUri",
          "type": "string"
        }
      ],
      "name": "ExternalCollectionRegistered",
      "type": "event"
    },
    {
      "anonymous": false,
      "inputs": [
        {
          "indexed": false,
          "internalType": "uint256",
          "name": "projectId",
          "type": "uint256"
        },
        {
          "indexed": false,
          "internalType": "uint256",
          "name": "templateId",
          "type": "uint256"
        },
        {
          "indexed": false,
          "internalType": "uint256",
          "name": "collectionId",
          "type": "uint256"
        },
        {
          "indexed": false,
          "internalType": "uint256",
          "name": "variationId",
          "type": "uint256"
        },
        {
          "indexed": false,
          "internalType": "uint256",
          "name": "tokenId",
          "type": "uint256"
        },
        {
          "indexed": false,
          "internalType": "string",
          "name": "uri",
          "type": "string"
        },
        {
          "indexed": false,
          "internalType": "address",
          "name": "to",
          "type": "address"
        }
      ],
      "name": "NFTMinted",
      "type": "event"
    },
    {
      "anonymous": false,
      "inputs": [
        {
          "indexed": false,
          "internalType": "uint256",
          "name": "projectId",
          "type": "uint256"
        },
        {
          "indexed": false,
          "internalType": "uint256",
          "name": "templateId",
          "type": "uint256"
        },
        {
          "indexed": false,
          "internalType": "uint256",
          "name": "collectionId",
          "type": "uint256"
        },
        {
          "indexed": false,
          "internalType": "int256",
          "name": "variationId",
          "type": "int256"
        },
        {
          "indexed": false,
          "internalType": "uint256",
          "name": "tokenId",
          "type": "uint256"
        },
        {
          "indexed": false,
          "internalType": "string",
          "name": "uri",
          "type": "string"
        },
        {
          "indexed": false,
          "internalType": "address",
          "name": "to",
          "type": "address"
        }
      ],
      "name": "NFTMintedFree",
      "type": "event"
    },
    {
      "anonymous": false,
      "inputs": [
        {
          "indexed": false,
          "internalType": "uint256",
          "name": "projectId",
          "type": "uint256"
        },
        {
          "indexed": false,
          "internalType": "uint256",
          "name": "templateId",
          "type": "uint256"
        },
        {
          "indexed": false,
          "internalType": "uint256",
          "name": "collectionId",
          "type": "uint256"
        },
        {
          "indexed": false,
          "internalType": "string",
          "name": "uri",
          "type": "string"
        },
        {
          "indexed": false,
          "internalType": "uint256",
          "name": "tokenId",
          "type": "uint256"
        },
        {
          "indexed": false,
          "internalType": "address",
          "name": "to",
          "type": "address"
        }
      ],
      "name": "NFTMintedWithPreUri",
      "type": "event"
    },
    {
      "anonymous": false,
      "inputs": [
        {
          "indexed": true,
          "internalType": "address",
          "name": "previousOwner",
          "type": "address"
        },
        {
          "indexed": true,
          "internalType": "address",
          "name": "newOwner",
          "type": "address"
        }
      ],
      "name": "OwnershipTransferred",
      "type": "event"
    },
    {
      "anonymous": false,
      "inputs": [
        {
          "indexed": false,
          "internalType": "address",
          "name": "contractAddress",
          "type": "address"
        },
        {
          "indexed": false,
          "internalType": "uint256",
          "name": "tokenId",
          "type": "uint256"
        },
        {
          "indexed": false,
          "internalType": "uint256",
          "name": "projectId",
          "type": "uint256"
        }
      ],
      "name": "ProjectSlotURIReset",
      "type": "event"
    },
    {
      "anonymous": false,
      "inputs": [
        {
          "indexed": false,
          "internalType": "address",
          "name": "contractAddress",
          "type": "address"
        },
        {
          "indexed": false,
          "internalType": "uint256",
          "name": "tokenId",
          "type": "uint256"
        },
        {
          "indexed": false,
          "internalType": "uint256",
          "name": "projectId",
          "type": "uint256"
        },
        {
          "indexed": false,
          "internalType": "string",
          "name": "uri",
          "type": "string"
        }
      ],
      "name": "ProjectURISlotAdded",
      "type": "event"
    },
    {
      "anonymous": false,
      "inputs": [
        {
          "indexed": false,
          "internalType": "bytes",
          "name": "signature",
          "type": "bytes"
        },
        {
          "indexed": false,
          "internalType": "uint256",
          "name": "projectId",
          "type": "uint256"
        },
        {
          "indexed": false,
          "internalType": "address",
          "name": "contractAddress",
          "type": "address"
        },
        {
          "indexed": false,
          "internalType": "uint256",
          "name": "tokenId",
          "type": "uint256"
        },
        {
          "indexed": false,
          "internalType": "string",
          "name": "updatedUri",
          "type": "string"
        }
      ],
      "name": "ProjectURIUpdated",
      "type": "event"
    },
    {
      "anonymous": false,
      "inputs": [
        {
          "indexed": false,
          "internalType": "address",
          "name": "reciever",
          "type": "address"
        },
        {
          "indexed": false,
          "internalType": "uint256",
          "name": "royaltyAmount",
          "type": "uint256"
        }
      ],
      "name": "RoyaltySet",
      "type": "event"
    },
    {
      "anonymous": false,
      "inputs": [
        {
          "indexed": true,
          "internalType": "address",
          "name": "from",
          "type": "address"
        },
        {
          "indexed": true,
          "internalType": "address",
          "name": "to",
          "type": "address"
        },
        {
          "indexed": true,
          "internalType": "uint256",
          "name": "tokenId",
          "type": "uint256"
        }
      ],
      "name": "Transfer",
      "type": "event"
    },
    {
      "inputs": [],
      "name": "OPERATOR_FILTER_REGISTRY",
      "outputs": [
        {
          "internalType": "contract IOperatorFilterRegistry",
          "name": "",
          "type": "address"
        }
      ],
      "stateMutability": "view",
      "type": "function"
    },
    {
      "inputs": [
        {
          "internalType": "address",
          "name": "owner",
          "type": "address"
        },
        {
          "internalType": "address[]",
          "name": "tokensContracts",
          "type": "address[]"
        },
        {
          "internalType": "uint256[]",
          "name": "tokenIds",
          "type": "uint256[]"
        },
        {
          "internalType": "uint256",
          "name": "projectId",
          "type": "uint256"
        },
        {
          "internalType": "string",
          "name": "projectDefaultUris",
          "type": "string"
        }
      ],
      "name": "addBatchURISlotToNFTs",
      "outputs": [],
      "stateMutability": "nonpayable",
      "type": "function"
    },
    {
      "inputs": [
        {
          "internalType": "address",
          "name": "owner",
          "type": "address"
        },
        {
          "internalType": "address",
          "name": "tokenContract",
          "type": "address"
        },
        {
          "internalType": "uint256",
          "name": "tokenId",
          "type": "uint256"
        },
        {
          "internalType": "uint256[]",
          "name": "projectIds",
          "type": "uint256[]"
        },
        {
          "internalType": "string[]",
          "name": "projectSlotDefaultUris",
          "type": "string[]"
        }
      ],
      "name": "addBatchURISlotsToNFT",
      "outputs": [],
      "stateMutability": "nonpayable",
      "type": "function"
    },
    {
      "inputs": [
        {
          "internalType": "address",
          "name": "owner",
          "type": "address"
        },
        {
          "internalType": "address",
          "name": "tokenContract",
          "type": "address"
        },
        {
          "internalType": "uint256",
          "name": "tokenId",
          "type": "uint256"
        },
        {
          "internalType": "uint256",
          "name": "projectId",
          "type": "uint256"
        },
        {
          "internalType": "string",
          "name": "projectSlotDefaultUri",
          "type": "string"
        }
      ],
      "name": "addURISlotToNFT",
      "outputs": [],
      "stateMutability": "nonpayable",
      "type": "function"
    },
    {
      "inputs": [
        {
          "internalType": "address",
          "name": "operator",
          "type": "address"
        },
        {
          "internalType": "uint256",
          "name": "tokenId",
          "type": "uint256"
        }
      ],
      "name": "approve",
      "outputs": [],
      "stateMutability": "nonpayable",
      "type": "function"
    },
    {
      "inputs": [
        {
          "internalType": "address",
          "name": "royaltyReciever",
          "type": "address"
        },
        {
          "internalType": "uint256",
          "name": "projectId",
          "type": "uint256"
        },
        {
          "internalType": "address",
          "name": "signer",
          "type": "address"
        },
        {
          "components": [
            {
              "internalType": "uint256[]",
              "name": "templateIds",
              "type": "uint256[]"
            },
            {
              "internalType": "uint256[]",
              "name": "collectionIds",
              "type": "uint256[]"
            },
            {
              "internalType": "uint256[]",
              "name": "collectionPrices",
              "type": "uint256[]"
            },
            {
              "internalType": "uint16[]",
              "name": "totalSupplies",
              "type": "uint16[]"
            }
          ],
          "internalType": "struct ImQuark.CreateCollectionParams",
          "name": "createParams",
          "type": "tuple"
        },
        {
          "internalType": "bytes[][]",
          "name": "signatures",
          "type": "bytes[][]"
        },
        {
          "internalType": "string[][]",
          "name": "uris",
          "type": "string[][]"
        },
        {
          "internalType": "bool[]",
          "name": "isCollectionFree",
          "type": "bool[]"
        }
      ],
      "name": "createCollections",
      "outputs": [],
      "stateMutability": "nonpayable",
      "type": "function"
    },
    {
      "inputs": [
        {
          "internalType": "address",
          "name": "royaltyReciever",
          "type": "address"
        },
        {
          "internalType": "uint256",
          "name": "projectId",
          "type": "uint256"
        },
        {
          "components": [
            {
              "internalType": "uint256[]",
              "name": "templateIds",
              "type": "uint256[]"
            },
            {
              "internalType": "uint256[]",
              "name": "collectionIds",
              "type": "uint256[]"
            },
            {
              "internalType": "uint256[]",
              "name": "collectionPrices",
              "type": "uint256[]"
            },
            {
              "internalType": "uint16[]",
              "name": "totalSupplies",
              "type": "uint16[]"
            }
          ],
          "internalType": "struct ImQuark.CreateCollectionParams",
          "name": "createParams",
          "type": "tuple"
        },
        {
          "internalType": "bool[]",
          "name": "isCollectionFree",
          "type": "bool[]"
        }
      ],
      "name": "createCollectionsWithoutURIs",
      "outputs": [],
      "stateMutability": "nonpayable",
      "type": "function"
    },
    {
      "inputs": [
        {
          "internalType": "address",
          "name": "collectionAddress",
          "type": "address"
        }
      ],
      "name": "externalCollectionURI",
      "outputs": [
        {
          "internalType": "string",
          "name": "",
          "type": "string"
        }
      ],
      "stateMutability": "view",
      "type": "function"
    },
    {
      "inputs": [
        {
          "internalType": "uint256",
          "name": "tokenId",
          "type": "uint256"
        }
      ],
      "name": "getApproved",
      "outputs": [
        {
          "internalType": "address",
          "name": "",
          "type": "address"
        }
      ],
      "stateMutability": "view",
      "type": "function"
    },
    {
      "inputs": [
        {
          "internalType": "uint256",
          "name": "tokenId",
          "type": "uint256"
        }
      ],
      "name": "getIsFreeMinted",
      "outputs": [
        {
          "internalType": "bool",
          "name": "",
          "type": "bool"
        }
      ],
      "stateMutability": "view",
      "type": "function"
    },
    {
      "inputs": [
        {
          "internalType": "uint256",
          "name": "templateId",
          "type": "uint256"
        },
        {
          "internalType": "uint256",
          "name": "projectId",
          "type": "uint256"
        },
        {
          "internalType": "uint256",
          "name": "collectionId",
          "type": "uint256"
        }
      ],
      "name": "getProjectCollection",
      "outputs": [
        {
          "internalType": "address",
          "name": "_royaltyReceiver",
          "type": "address"
        },
        {
          "internalType": "uint256",
          "name": "_projectId",
          "type": "uint256"
        },
        {
          "internalType": "uint256",
          "name": "_templateId",
          "type": "uint256"
        },
        {
          "internalType": "uint256",
          "name": "_collectionId",
          "type": "uint256"
        },
        {
          "internalType": "uint256",
          "name": "minTokenId",
          "type": "uint256"
        },
        {
          "internalType": "uint256",
          "name": "maxTokenId",
          "type": "uint256"
        },
        {
          "internalType": "uint256",
          "name": "mintCount",
          "type": "uint256"
        },
        {
          "internalType": "string[]",
          "name": "collectionURIs",
          "type": "string[]"
        },
        {
          "internalType": "uint16",
          "name": "totalSupply",
          "type": "uint16"
        },
        {
          "internalType": "uint8",
          "name": "mintType",
          "type": "uint8"
        }
      ],
      "stateMutability": "view",
      "type": "function"
    },
    {
      "inputs": [
        {
          "internalType": "uint256",
          "name": "projectId",
          "type": "uint256"
        },
        {
          "internalType": "uint256",
          "name": "templateId",
          "type": "uint256"
        }
      ],
      "name": "getProjectLastCollectionId",
      "outputs": [
        {
          "internalType": "uint256",
          "name": "",
          "type": "uint256"
        }
      ],
      "stateMutability": "view",
      "type": "function"
    },
    {
      "inputs": [],
      "name": "globalTokenIdVariable",
      "outputs": [
        {
          "internalType": "uint256",
          "name": "",
          "type": "uint256"
        }
      ],
      "stateMutability": "view",
      "type": "function"
    },
    {
      "inputs": [
        {
          "internalType": "address",
          "name": "owner",
          "type": "address"
        },
        {
          "internalType": "address",
          "name": "operator",
          "type": "address"
        }
      ],
      "name": "isApprovedForAll",
      "outputs": [
        {
          "internalType": "bool",
          "name": "",
          "type": "bool"
        }
      ],
      "stateMutability": "view",
      "type": "function"
    },
    {
      "inputs": [
        {
          "internalType": "address",
          "name": "contractAddress",
          "type": "address"
        },
        {
          "internalType": "uint256",
          "name": "tokenId",
          "type": "uint256"
        },
        {
          "internalType": "uint256",
          "name": "projectId",
          "type": "uint256"
        }
      ],
      "name": "isSlotAddedForProject",
      "outputs": [
        {
          "internalType": "bool",
          "name": "isAdded",
          "type": "bool"
        }
      ],
      "stateMutability": "view",
      "type": "function"
    },
    {
      "inputs": [],
      "name": "mQuarkControl",
      "outputs": [
        {
          "internalType": "contract ImQuarkControl",
          "name": "",
          "type": "address"
        }
      ],
      "stateMutability": "view",
      "type": "function"
    },
    {
      "inputs": [
        {
          "internalType": "address",
          "name": "to",
          "type": "address"
        },
        {
          "internalType": "uint256",
          "name": "projectId",
          "type": "uint256"
        },
        {
          "internalType": "uint256",
          "name": "templateId",
          "type": "uint256"
        },
        {
          "internalType": "uint256",
          "name": "collectionId",
          "type": "uint256"
        },
        {
          "internalType": "uint256",
          "name": "variationId",
          "type": "uint256"
        }
      ],
      "name": "mint",
      "outputs": [],
      "stateMutability": "nonpayable",
      "type": "function"
    },
    {
      "inputs": [
        {
          "internalType": "address",
          "name": "to",
          "type": "address"
        },
        {
          "internalType": "uint256",
          "name": "projectId",
          "type": "uint256"
        },
        {
          "internalType": "uint256[]",
          "name": "templateIds",
          "type": "uint256[]"
        },
        {
          "internalType": "uint256[]",
          "name": "collectionIds",
          "type": "uint256[]"
        },
        {
          "internalType": "uint256[]",
          "name": "variationIds",
          "type": "uint256[]"
        },
        {
          "internalType": "uint16[]",
          "name": "amounts",
          "type": "uint16[]"
        }
      ],
      "name": "mintBatch",
      "outputs": [],
      "stateMutability": "nonpayable",
      "type": "function"
    },
    {
      "inputs": [
        {
          "internalType": "address",
          "name": "to",
          "type": "address"
        },
        {
          "internalType": "uint256",
          "name": "projectId",
          "type": "uint256"
        },
        {
          "internalType": "uint256[]",
          "name": "templateIds",
          "type": "uint256[]"
        },
        {
          "internalType": "uint256[]",
          "name": "collectionIds",
          "type": "uint256[]"
        },
        {
          "internalType": "uint256[]",
          "name": "variationIds",
          "type": "uint256[]"
        },
        {
          "internalType": "uint16[]",
          "name": "amounts",
          "type": "uint16[]"
        },
        {
          "internalType": "string",
          "name": "projectDefaultUri",
          "type": "string"
        }
      ],
      "name": "mintBatchWithURISlot",
      "outputs": [],
      "stateMutability": "nonpayable",
      "type": "function"
    },
    {
      "inputs": [
        {
          "internalType": "uint256",
          "name": "projectId",
          "type": "uint256"
        },
        {
          "internalType": "uint256",
          "name": "templateId",
          "type": "uint256"
        },
        {
          "internalType": "uint256",
          "name": "collectionId",
          "type": "uint256"
        },
        {
          "internalType": "uint256",
          "name": "variationId",
          "type": "uint256"
        }
      ],
      "name": "mintFree",
      "outputs": [],
      "stateMutability": "nonpayable",
      "type": "function"
    },
    {
      "inputs": [
        {
          "internalType": "address",
          "name": "signer",
          "type": "address"
        },
        {
          "internalType": "uint256",
          "name": "projectId",
          "type": "uint256"
        },
        {
          "internalType": "uint256",
          "name": "templateId",
          "type": "uint256"
        },
        {
          "internalType": "uint256",
          "name": "collectionId",
          "type": "uint256"
        },
        {
          "internalType": "bytes",
          "name": "signature",
          "type": "bytes"
        },
        {
          "internalType": "string",
          "name": "uri",
          "type": "string"
        },
        {
          "internalType": "bytes",
          "name": "salt",
          "type": "bytes"
        }
      ],
      "name": "mintFreeWithPreURI",
      "outputs": [],
      "stateMutability": "nonpayable",
      "type": "function"
    },
    {
      "inputs": [
        {
          "internalType": "address",
          "name": "signer",
          "type": "address"
        },
        {
          "internalType": "address",
          "name": "to",
          "type": "address"
        },
        {
          "internalType": "uint256",
          "name": "projectId",
          "type": "uint256"
        },
        {
          "internalType": "uint256",
          "name": "templateId",
          "type": "uint256"
        },
        {
          "internalType": "uint256",
          "name": "collectionId",
          "type": "uint256"
        },
        {
          "internalType": "bytes",
          "name": "signature",
          "type": "bytes"
        },
        {
          "internalType": "string",
          "name": "uri",
          "type": "string"
        },
        {
          "internalType": "bytes",
          "name": "salt",
          "type": "bytes"
        }
      ],
      "name": "mintWithPreURI",
      "outputs": [],
      "stateMutability": "nonpayable",
      "type": "function"
    },
    {
      "inputs": [
        {
          "internalType": "address",
          "name": "to",
          "type": "address"
        },
        {
          "internalType": "uint256",
          "name": "templateId",
          "type": "uint256"
        },
        {
          "internalType": "uint256",
          "name": "collectionId",
          "type": "uint256"
        },
        {
          "internalType": "uint256",
          "name": "variationId",
          "type": "uint256"
        },
        {
          "internalType": "uint256[]",
          "name": "projectIds",
          "type": "uint256[]"
        },
        {
          "internalType": "string[]",
          "name": "projectSlotDefaultUris",
          "type": "string[]"
        }
      ],
      "name": "mintWithURISlots",
      "outputs": [],
      "stateMutability": "nonpayable",
      "type": "function"
    },
    {
      "inputs": [],
      "name": "name",
      "outputs": [
        {
          "internalType": "string",
          "name": "",
          "type": "string"
        }
      ],
      "stateMutability": "view",
      "type": "function"
    },
    {
      "inputs": [],
      "name": "owner",
      "outputs": [
        {
          "internalType": "address",
          "name": "",
          "type": "address"
        }
      ],
      "stateMutability": "view",
      "type": "function"
    },
    {
      "inputs": [
        {
          "internalType": "uint256",
          "name": "tokenId",
          "type": "uint256"
        }
      ],
      "name": "ownerOf",
      "outputs": [
        {
          "internalType": "address",
          "name": "",
          "type": "address"
        }
      ],
      "stateMutability": "view",
      "type": "function"
    },
    {
      "inputs": [
        {
          "internalType": "address",
          "name": "tokenContract",
          "type": "address"
        },
        {
          "internalType": "string",
          "name": "templateUri",
          "type": "string"
        }
      ],
      "name": "registerExternalCollection",
      "outputs": [],
      "stateMutability": "nonpayable",
      "type": "function"
    },
    {
      "inputs": [],
      "name": "renounceOwnership",
      "outputs": [],
      "stateMutability": "nonpayable",
      "type": "function"
    },
    {
      "inputs": [
        {
          "internalType": "uint256",
          "name": "_tokenId",
          "type": "uint256"
        },
        {
          "internalType": "uint256",
          "name": "_salePrice",
          "type": "uint256"
        }
      ],
      "name": "royaltyInfo",
      "outputs": [
        {
          "internalType": "address",
          "name": "receiver",
          "type": "address"
        },
        {
          "internalType": "uint256",
          "name": "royaltyAmount",
          "type": "uint256"
        }
      ],
      "stateMutability": "view",
      "type": "function"
    },
    {
      "inputs": [],
      "name": "royaltyPercentage",
      "outputs": [
        {
          "internalType": "uint256",
          "name": "",
          "type": "uint256"
        }
      ],
      "stateMutability": "view",
      "type": "function"
    },
    {
      "inputs": [],
      "name": "royaltyReceiver",
      "outputs": [
        {
          "internalType": "address",
          "name": "",
          "type": "address"
        }
      ],
      "stateMutability": "view",
      "type": "function"
    },
    {
      "inputs": [
        {
          "internalType": "address",
          "name": "from",
          "type": "address"
        },
        {
          "internalType": "address",
          "name": "to",
          "type": "address"
        },
        {
          "internalType": "uint256",
          "name": "tokenId",
          "type": "uint256"
        }
      ],
      "name": "safeTransferFrom",
      "outputs": [],
      "stateMutability": "nonpayable",
      "type": "function"
    },
    {
      "inputs": [
        {
          "internalType": "address",
          "name": "from",
          "type": "address"
        },
        {
          "internalType": "address",
          "name": "to",
          "type": "address"
        },
        {
          "internalType": "uint256",
          "name": "tokenId",
          "type": "uint256"
        },
        {
          "internalType": "bytes",
          "name": "data",
          "type": "bytes"
        }
      ],
      "name": "safeTransferFrom",
      "outputs": [],
      "stateMutability": "nonpayable",
      "type": "function"
    },
    {
      "inputs": [
        {
          "internalType": "address",
          "name": "operator",
          "type": "address"
        },
        {
          "internalType": "bool",
          "name": "approved",
          "type": "bool"
        }
      ],
      "name": "setApprovalForAll",
      "outputs": [],
      "stateMutability": "nonpayable",
      "type": "function"
    },
    {
      "inputs": [
        {
          "internalType": "address",
          "name": "_receiver",
          "type": "address"
        },
        {
          "internalType": "uint256",
          "name": "_royaltyPercentage",
          "type": "uint256"
        }
      ],
      "name": "setRoyalty",
      "outputs": [],
      "stateMutability": "nonpayable",
      "type": "function"
    },
    {
      "inputs": [
        {
          "internalType": "bytes4",
          "name": "interfaceId",
          "type": "bytes4"
        }
      ],
      "name": "supportsInterface",
      "outputs": [
        {
          "internalType": "bool",
          "name": "",
          "type": "bool"
        }
      ],
      "stateMutability": "view",
      "type": "function"
    },
    {
      "inputs": [],
      "name": "symbol",
      "outputs": [
        {
          "internalType": "string",
          "name": "",
          "type": "string"
        }
      ],
      "stateMutability": "view",
      "type": "function"
    },
    {
      "inputs": [
        {
          "internalType": "address",
          "name": "tokenContract",
          "type": "address"
        },
        {
          "internalType": "uint256",
          "name": "tokenId",
          "type": "uint256"
        },
        {
          "internalType": "uint256",
          "name": "projectId",
          "type": "uint256"
        }
      ],
      "name": "tokenProjectURI",
      "outputs": [
        {
          "internalType": "string",
          "name": "",
          "type": "string"
        }
      ],
      "stateMutability": "view",
      "type": "function"
    },
    {
      "inputs": [
        {
          "internalType": "uint256",
          "name": "tokenId",
          "type": "uint256"
        }
      ],
      "name": "tokenURI",
      "outputs": [
        {
          "internalType": "string",
          "name": "",
          "type": "string"
        }
      ],
      "stateMutability": "view",
      "type": "function"
    },
    {
      "inputs": [
        {
          "internalType": "address",
          "name": "from",
          "type": "address"
        },
        {
          "internalType": "address",
          "name": "to",
          "type": "address"
        },
        {
          "internalType": "uint256",
          "name": "tokenId",
          "type": "uint256"
        }
      ],
      "name": "transferFrom",
      "outputs": [],
      "stateMutability": "nonpayable",
      "type": "function"
    },
    {
      "inputs": [
        {
          "internalType": "address",
          "name": "newOwner",
          "type": "address"
        }
      ],
      "name": "transferOwnership",
      "outputs": [],
      "stateMutability": "nonpayable",
      "type": "function"
    },
    {
      "inputs": [
        {
          "components": [
            {
              "internalType": "address payable",
              "name": "seller",
              "type": "address"
            },
            {
              "internalType": "address",
              "name": "fromContractAddress",
              "type": "address"
            },
            {
              "internalType": "uint256",
              "name": "fromTokenId",
              "type": "uint256"
            },
            {
              "internalType": "uint256",
              "name": "projectId",
              "type": "uint256"
            },
            {
              "internalType": "string",
              "name": "slotUri",
              "type": "string"
            },
            {
              "internalType": "uint256",
              "name": "sellPrice",
              "type": "uint256"
            }
          ],
          "internalType": "struct ImQuark.SellOrder",
          "name": "seller",
          "type": "tuple"
        },
        {
          "components": [
            {
              "internalType": "address",
              "name": "buyer",
              "type": "address"
            },
            {
              "internalType": "address",
              "name": "seller",
              "type": "address"
            },
            {
              "internalType": "address",
              "name": "fromContractAddress",
              "type": "address"
            },
            {
              "internalType": "uint256",
              "name": "fromTokenId",
              "type": "uint256"
            },
            {
              "internalType": "address",
              "name": "toContractAddress",
              "type": "address"
            },
            {
              "internalType": "uint256",
              "name": "toTokenId",
              "type": "uint256"
            },
            {
              "internalType": "uint256",
              "name": "projectId",
              "type": "uint256"
            },
            {
              "internalType": "string",
              "name": "slotUri",
              "type": "string"
            },
            {
              "internalType": "uint256",
              "name": "buyPrice",
              "type": "uint256"
            }
          ],
          "internalType": "struct ImQuark.BuyOrder",
          "name": "buyer",
          "type": "tuple"
        },
        {
          "internalType": "string",
          "name": "projectDefaultUri",
          "type": "string"
        }
      ],
      "name": "transferTokenProjectURI",
      "outputs": [],
      "stateMutability": "nonpayable",
      "type": "function"
    },
    {
      "inputs": [
        {
          "internalType": "uint256",
          "name": "projectId",
          "type": "uint256"
        },
        {
          "internalType": "uint256",
          "name": "templateId",
          "type": "uint256"
        },
        {
          "internalType": "uint256",
          "name": "collectionId",
          "type": "uint256"
        },
        {
          "internalType": "uint256",
          "name": "tokenId",
          "type": "uint256"
        }
      ],
      "name": "unlockFreeMintNFT",
      "outputs": [],
      "stateMutability": "nonpayable",
      "type": "function"
    },
    {
      "inputs": [
        {
          "internalType": "address",
          "name": "owner",
          "type": "address"
        },
        {
          "internalType": "bytes",
          "name": "signature",
          "type": "bytes"
        },
        {
          "internalType": "address",
          "name": "project",
          "type": "address"
        },
        {
          "internalType": "uint256",
          "name": "projectId",
          "type": "uint256"
        },
        {
          "internalType": "address",
          "name": "tokenContract",
          "type": "address"
        },
        {
          "internalType": "uint256",
          "name": "tokenId",
          "type": "uint256"
        },
        {
          "internalType": "string",
          "name": "updatedUri",
          "type": "string"
        }
      ],
      "name": "updateURISlot",
      "outputs": [],
      "stateMutability": "nonpayable",
      "type": "function"
    }
  ],
  "bytecode": "0x60a0346200044c57601f90601f19906200617d3881900384810184168301926000926001600160401b03929083861183871017620004385790808392604097885283396020928391810103126200043457516001600160a01b039690959087871687036200043057855192620000758462000451565b60068452656d517561726b60d01b81850152865190620000958262000451565b600382526251524b60e81b8183015284518681116200033d578754956001968781811c9116801562000425575b848210146200041157908186849311620003be575b5083908683116001146200035d578a9262000351575b5050600019600383901b1c191690861b1787555b8151938685116200033d5785548681811c9116801562000332575b838210146200031e57908185879695949311620002c5575b508193851160011462000260575050869262000254575b5050600019600383901b1c191690821b1790555b6daaeb6d7670e522a718067333cd4e803b620001d4575b50507f8be0079c531659141344cd1fd0a4f28419497f9722a3daafe3b4186f6b6457e0600554923360018060a01b031985161760055551943393169180a3608052615cf99081620004848239608051818181610fbb015261582f0152f35b803b156200025057908280926044865180958193633e9f1edf60e11b8352306004840152733cc6cdda760b79bafa08df41ecfa224f810dceb660248401525af180156200024657156200017657811162000232578252388062000176565b634e487b7160e01b82526041600452602482fd5b84513d85823e3d90fd5b8280fd5b0151905038806200014b565b869593929193168589528389209389905b828210620002ab575050841162000291575b505050811b0190556200015f565b015160001960f88460031b161c1916905538808062000283565b848401518655889790950194938401939081019062000271565b9091929394508689528289208580880160051c82019285891062000314575b9188978a9297969594930160051c01915b8281106200030557505062000134565b8b8155889750899101620002f5565b92508192620002e4565b634e487b7160e01b89526022600452602489fd5b90607f16906200011c565b634e487b7160e01b88526041600452602488fd5b015190503880620000ed565b9087899416918b8052858c20928c5b87828210620003a757505084116200038d575b505050811b01875562000101565b015160001960f88460031b161c191690553880806200037f565b8385015186558c979095019493840193016200036c565b909150898052838a208680850160051c82019286861062000407575b918a91869594930160051c01915b828110620003f8575050620000d7565b8c81558594508a9101620003e8565b92508192620003da565b634e487b7160e01b8a52602260045260248afd5b90607f1690620000c2565b8480fd5b8380fd5b634e487b7160e01b85526041600452602485fd5b600080fd5b604081019081106001600160401b038211176200046d57604052565b634e487b7160e01b600052604160045260246000fdfe61044080604052600436101561001457600080fd5b60003560e01c90816301ffc9a7146148a25750806306fdde03146147ff578063081812fc146147e157806308d27af514614708578063095ea7b3146145855780630c74978814613d0157806310fd332b14613c775780631e0d8541146138a357806322db8f4b1461384357806323b872dd146138005780632a55205a146137a45780632f767dbc146130c75780633cbc61941461305c57806341f434341461303357806342842e0e14612fdd57806344704d5914612dca57806349cb7f3f14612a815780635df67de2146129ec57806362eb7c9d1461291c5780636352211e146128ed57806364108b4c146128cf57806365e7eeb11461289c578063715018a61461284857806374c6759b1461228b57806381a3f68014611e245780638a71bb2d14611e065780638da5cb5b14611ddf5780638f550435146117b757806395d89b41146116ec5780639fbc8713146116c5578063a22cb465146115e0578063a686c036146115af578063a982656c146111a6578063aac2bb3514611150578063b88d4fde1461104e578063c87b56dd14610fdf578063ca8cf1b114610f9b578063d3778f3814610b89578063dda87c3314610816578063debba66814610708578063e985e9c5146106b1578063f2fde38b146105ef578063f92883a2146102745763fb5cff991461020457600080fd5b3461026f576001600160a01b0361021a36614aeb565b92909116600052600b60205260406000209060005260205260406000209060005260205260206102666102506040600020614cf8565b6040519061025d82614b67565b600082526157d0565b15604051908152f35b600080fd5b3461026f5760a036600319011261026f5761028d6149e3565b610295615825565b604435156105dd57604435600052600e60205260406000206024356000526020526040600020606435600052602052604060002090604051916102d783614b15565b6001600160a01b039081815416845260018101546020850152600281015460408501526003810154606085015260048101549060808501918252600581015460a0860152600860068201549160c0870192835261033660078201614df2565b60e08801520154610100860190600160ff61ffff92838116855260101c16806101208a0152116105cb5760843560e08801515111156105b9578351156105a757825191511611156105955761038e9151905190614e47565b906103998284614f18565b8351166103ac60843560e0860151614e54565b51604051916103ba83614b31565b60008352602083019081526040830191825283600052600f6020526103f3604060002093511515849060ff801983541691151516179055565b51610100600160a81b0383549160081b1690610100600160a81b031916178255518051906001600160401b03821161057f5761043f826104366001860154614cbe565b60018601614e7f565b602090601f83116001146104f957926001836104cf94600080516020615ca483398151915299946104e9976000926104ee575b5050600019600383901b1c191690821b179101555b604435600052600e6020526040600020602435600052602052604060002060643560005260205260066040600020016104c08154614ec4565b905560e0608435910151614e54565b519260405193849360843560643560443560243588614ed3565b0390a1005b015190508a80610472565b906001840160005260206000209160005b601f19851681106105675750600184600080516020615ca483398151915299946104e9979483946104cf98601f1981161061054e575b505050811b01910155610487565b015160001960f88460031b161c191690558a8080610540565b9192602060018192868501518155019401920161050a565b634e487b7160e01b600052604160045260246000fd5b6040516374d9e0b960e01b8152600490fd5b604051633d1bda8160e01b8152600490fd5b60405163319d38df60e21b8152600490fd5b604051632ff2985360e01b8152600490fd5b60405163258bbff760e21b8152600490fd5b3461026f57602036600319011261026f576106086149e3565b610610614bf5565b6001600160a01b0380911690811561065d57600554826001600160a01b0319821617600555167f8be0079c531659141344cd1fd0a4f28419497f9722a3daafe3b4186f6b6457e0600080a3005b60405162461bcd60e51b815260206004820152602660248201527f4f776e61626c653a206e6577206f776e657220697320746865207a65726f206160448201526564647265737360d01b6064820152608490fd5b3461026f57604036600319011261026f576106ca6149e3565b6106d2614a0f565b906001600160a01b03809116600052600460205260406000209116600052602052602060ff604060002054166040519015158152f35b3461026f5761071636614acd565b929091610721615825565b600052600e6020526040600020906000526020526040600020906000526020526040600020818060405161075481614b15565b6001600160a01b0384541681526001840154602082015260028401546040820152600384015460608201526004840154906080810191825261012060ff600860058801549760a08501988952600681015460c08601526107b660078201614df2565b60e0860152015461ffff811661010085015260101c16910152511115918261080a575b5050156107f8576000908152600f60205260409020805460ff19169055005b6040516307ed98ed60e31b8152600490fd5b511015905081836107d9565b3461026f5760c036600319011261026f5761082f6149e3565b6084356001600160401b03811161026f5761084e903690600401614a25565b9060a4356001600160401b03811161026f5761086e903690600401614a25565b610876615825565b602435156105dd57602435600052600e60205260406000208415610b7357833560005260205260406000206044356000526020526040600020916008604051936108bf85614b15565b6001600160a01b03815416855260018101546020860152600281015460408601526003810154606086015260048101546080860152600581015460a0860152600681015460c086015261091460078201614df2565b60e08601520154600160ff61ffff9283811661010088015260101c1680610120870152116105cb5760643560e08501515111156105b95760c08401519061010085015116111561059557610971608084015160c085015190614e47565b9461097c8688614f18565b6001600160a01b0384511661099760643560e0870151614e54565b51604051916109a583614b31565b60008352602083019081526040830191825288600052600f6020526109de604060002093511515849060ff801983541691151516179055565b51610100600160a81b0383549160081b1690610100600160a81b031916178255518051906001600160401b03821161057f57610a21826104366001860154614cbe565b602090601f8311600114610ae55793610ab393600184600080516020615ca48339815191529d9995610ac099956104e99c99600092610ada575b5050600019600383901b1c191690821b179101555b602435600052600e6020526040600020893560005260205260406000206044356000526020526006604060002001610aa88154614ec4565b9055888a308961538e565b60e0606435910151614e54565b516040519485946064359060443590602435903588614ed3565b015190508f80610a5b565b906001840160005260206000209160005b601f1985168110610b5b57509360018085610ac09995600080516020615ca48339815191529f9b9795610ab3996104e99e9b97601f19811610610b42575b505050811b01910155610a70565b015160001960f88460031b161c191690558f8080610b34565b91926020600181928685015181550194019201610af6565b634e487b7160e01b600052603260045260246000fd5b3461026f5760e036600319011261026f57610ba26149e3565b6024356001600160401b03811161026f57610bc1903690600401614a55565b610bc96149f9565b92608435906001600160a01b038216820361026f5760c4356001600160401b03811161026f57610bfd903690600401614a55565b929091610c08615825565b6040516331a9108f60e11b815260a4356004820152906020826024816001600160a01b0387165afa918215610f8f57600092610f53575b506001600160a01b03809116911603610f41576001600160a01b038116600052600b602052604060002060a4356000526020526040600020956064359687600052602052610c906040600020614cf8565b60405160208101918183106001600160401b0384111761057f57610cba92604052600082526157d0565b610f2f57610cc9368688614bbe565b610cd4368686614bbe565b9160ff6040516020818551610cec8183858a0161493f565b8101600c8152030190205416610f1d57610d6089926001600160a01b0392610d449560405196879186602084019416978885526040840152868a16606084015260a435608084015260a08084015260c0830190614962565b0395610d58601f1997888101835282614b82565b5190206155a3565b1603610f0b5760405185878237602081878101600c8152030190206001908160ff198254161790556001600160a01b038316600052600b602052604060002060a4356000526020526040600020886000526020526040600020916001600160401b03861161057f57610ddc86610dd68554614cbe565b85614e7f565b600090601f8711600114610e7b5750927ee21a322a723142c005d1784cb53c4b813ad6f9199a5357ebb279243faa454598949286806001600160a01b03946104e99997600093610e70575b501b906000198760031b1c19161790555b610e4f60405198899860a08a5260a08a0191614fd2565b94602088015216604086015260a43560608601528483036080860152614fd2565b87013592508d610e27565b8616908360005260206000209160005b818110610ef55750928795927ee21a322a723142c005d1784cb53c4b813ad6f9199a5357ebb279243faa45459b9795926104e9996001600160a01b039610610edb575b505085811b019055610e38565b860135600019600389901b60f8161c191690558b80610ece565b8783013584559284019260209283019201610e8b565b60405163439cc0cd60e01b8152600490fd5b60405163333a6a0960e21b8152600490fd5b60405163a781210960e01b8152600490fd5b6040516330cd747160e01b8152600490fd5b6001600160a01b03919250610f80829160203d602011610f88575b610f788183614b82565b81019061508b565b929150610c3f565b503d610f6e565b6040513d6000823e3d90fd5b3461026f57600036600319011261026f5760206040516001600160a01b037f0000000000000000000000000000000000000000000000000000000000000000168152f35b3461026f57602036600319011261026f5760043561101b6110168260005260026020526001600160a01b0360406000205416151590565b614c4d565b600052600f60205261104a6110366001604060002001614cf8565b604051918291602083526020830190614962565b0390f35b3461026f57608036600319011261026f576110676149e3565b61106f614a0f565b90604435606435926001600160401b03841161026f573660238501121561026f576110a76110db943690602481600401359101614bbe565b92336001600160a01b03821603611142575b6110cb6110c68433615971565b6158ff565b6110d68383836159df565b615b36565b156110e257005b60405162461bcd60e51b815260206004820152603260248201527f4552433732313a207472616e7366657220746f206e6f6e20455243373231526560448201527131b2b4bb32b91034b6b83632b6b2b73a32b960711b6064820152608490fd5b61114b33615869565b6110b9565b3461026f5760a036600319011261026f576111696149e3565b611171614a0f565b608435916001600160401b03831161026f576111946111a4933690600401614a55565b92909160643591604435916150aa565b005b3461026f5761010036600319011261026f576111c06149e3565b6111c8614a0f565b9060a4356001600160401b03811161026f576111e8903690600401614a55565b9060c4356001600160401b03811161026f57611208903690600401614a55565b92909360e4356001600160401b03811161026f5761122a903690600401614a55565b611235929192615825565b606435156105dd576112759261126361124f368789614bbe565b9161125b368a8c614bbe565b933691614bbe565b92608435916064359160443591615509565b15610f0b57606435600052600e602052604060002060443560005260205260406000206084356000526020526040600020916008604051936112b685614b15565b6001600160a01b03815416855260018101546020860152600281015460408601526003810154606086015260048101546080860152600581015460a0860152600681015460c086015261130b60078201614df2565b60e08601520154610100840190600260ff61ffff92838116855260101c1680610120880152036105cb576080850151156105a75760c08501519151161115610595576020908260405193849283378101600c815203019020600160ff198254161790556001600160a01b03611389608083015160c084015190614e47565b916113948387614f18565b511693604051946113a486614b31565b60008652602086019081526113ba368587614bbe565b906040870191825283600052600f6020526113e9604060002097511515889060ff801983541691151516179055565b51610100600160a81b0387549160081b1690610100600160a81b031916178655519485516001600160401b03811161057f576114358161142c6001850154614cbe565b60018501614e7f565b6020601f821160011461151657816001600160a01b039493926001927f979e962aeab620cf7d045c49044881170cef5813263f4c0d9bfa0b74f0d629499a60009261150b575b5050600019600383901b1c191690821b179101555b606435600052600e6020526040600020604435600052602052604060002060843560005260205260066040600020016114c98154614ec4565b90556114fa60405195869560443587526064356020880152608435604088015260c0606088015260c0870191614fd2565b9260808501521660a08301520390a1005b015190508a8061147b565b6001830160005260206000209760005b601f19841681106115975750827f979e962aeab620cf7d045c49044881170cef5813263f4c0d9bfa0b74f0d629499960019384936001600160a01b03989796601f1981161061157e575b505050811b01910155611490565b015160001960f88460031b161c191690558a8080611570565b828201518a5560019099019860209283019201611526565b3461026f57602036600319011261026f57600435600052600f602052602060ff604060002054166040519015158152f35b3461026f57604036600319011261026f576115f96149e3565b602435908115159081830361026f578061161a6001600160a01b0392615869565b1691823314611680576116529033600052600460205260406000208460005260205260406000209060ff801983541691151516179055565b6040519081527f17307eab39ab6107e8899845ad3d59bd9653f200f220920489ca2b5937696c3160203392a3005b60405162461bcd60e51b815260206004820152601960248201527f4552433732313a20617070726f766520746f2063616c6c6572000000000000006044820152606490fd5b3461026f57600036600319011261026f5760206001600160a01b0360085416604051908152f35b3461026f57600036600319011261026f576040516000600180549061171082614cbe565b808552918181169081156117905750600114611737575b61104a8461103681860382614b82565b600081815292507fb10e2d527612073b26eecdfd717e6a320cf44b4afac2b0732d9fcbe2b7fa0cf65b82841061177857505050810160200161103682611727565b80546020858701810191909152909301928101611760565b60ff191660208087019190915292151560051b850190920192506110369150839050611727565b3461026f5760031960803682011261026f576117d16149e3565b604435916001600160401b03831161026f57608090833603011261026f576064356001600160401b03811161026f5761180e903690600401614a25565b929091611819615825565b600a549361182a60048401806153fb565b93905060005b84811061183e57600a879055005b602435600052600d60205260406000206118688261186285600401866004016153fb565b90614ff3565b35600052602052604060002061187e8154614ec4565b8091556040519761188e89614b4c565b6001895260005b60208110611dce57506118b28361186260248701876004016153fb565b358203611dbc576118ca8361186260048701806153fb565b35600052600e6020526040600020602435600052602052604060002082600052602052604060002061012060ff60086040519361190685614b15565b6001600160a01b03815416855260018101546020860152600281015460408601526003810154606086015260048101546080860152600581015460a0860152600681015460c086015261195b60078201614df2565b60e0860152015461ffff811661010085015260101c1691015261198761198284878b614ff3565b615447565b15611db55760055b6119a08461186260048801806153fb565b3591600181018111611d9f57611a6b9061ffff6119da816119d36119ce8a61186260648e0160048f016153fb565b615050565b1683614e47565b6119f16119ce8961186260648d018d6004016153fb565b90604051966119ff88614b15565b6001600160a01b038d1688526024356020890152604088015287606088015260018401608088015260a0870152600060c08701528d60e08701521661010085015260ff831661012085015261ffff611a646119ce8861186260648c018c6004016153fb565b1690614e47565b99611a7d8561186260048901806153fb565b35600052600e602052604060002060243560005260205260406000208460005260205260406000206001600160a01b038451166001600160a01b03198254161781556020840151600182015560408401516002820155606084015160038201556080840151600482015560a0840151600582015560c0840151600682015560e084015180519068010000000000000000821161057f576007830154826007850155808310611d20575b50602001906007830160005260206000206000925b828410611c3d57505050509160ff611c2c7f0f70b8bcce8b5c011001183817b8553eeff4c35b5dcff829aaefbc6c037b90499593600860019998960161ffff6101008701511681549062ff000061012089015160101b169162ffffff19161717905589611bb28961186283600401846004016153fb565b359561ffff611be46119ce8c611862611bd58261186260448a018a6004016153fb565b359660648101906004016153fb565b60a06080840151930151936040519a8b9a6024358c5260208c015260408b015260608a015216608088015260a087015260c086015261012060e0860152610120850190614987565b91166101008301520390a101611830565b80518051906001600160401b03821161057f57611c6482611c5e8654614cbe565b86614e7f565b602090601f8311600114611cb0579282600194936020938695600092611ca5575b5050600019600383901b1c191690841b1785555b01920193019290611b3b565b015190503880611c85565b908460005260206000209160005b601f1985168110611d08575083602093600196938796938794601f19811610611cef575b505050811b018555611c99565b015160001960f88460031b161c19169055388080611ce2565b91926020600181928685015181550194019201611cbe565b600784016000526020600020908382015b8183018110611d41575050611b26565b80611d4e60019254614cbe565b80611d5b575b5001611d31565b601f908181118414611d74575050600081555b38611d54565b83611d9092846000526020600020920160051c82019101614e68565b60006020812081835555611d6e565b634e487b7160e01b600052601160045260246000fd5b600261198f565b60405163017e9c7d60e41b8152600490fd5b806060602080938d01015201611895565b3461026f57600036600319011261026f5760206001600160a01b0360055416604051908152f35b3461026f57600036600319011261026f576020600954604051908152f35b3461026f5760031960603682011261026f576001600160401b036004351161026f5760c0816004353603011261026f576001600160401b036024351161026f57610120906024353603011261026f576044356001600160401b03811161026f57611e92903690600401614a55565b90611e9b615825565b602460206001600160a01b03611eb483600435016153e7565b16604051928380926331a9108f60e11b82526044600435013560048301525afa908115610f8f5760009161226c575b5060043560040135906001600160a01b03821680920361026f576001600160a01b03160361225a57602460206001600160a01b03611f2460848435016153e7565b16604051928380926331a9108f60e11b825260a48335013560048301525afa908115610f8f5760009161223b575b506001600160a01b0380611f6a6024356004016153e7565b16911603612229576001600160a01b03611f886024600435016153e7565b16600052600b602052604060002060446004350135600052602052604060002060646004350135600052602052611fed611fdf611fe76040600020611fd7608460043501600435600401615341565b939091614cf8565b923691614bbe565b906157d0565b1561221757612006608460043501600435600401615341565b6001600160a01b0361201f6084602496949635016153e7565b16600052600b602052604060002060a46024350135600052602052604060002060c460243501356000526020526040600020906001600160401b03811161057f576120748161206e8454614cbe565b84614e7f565b6000601f82116001146121b05781929394956000926121a5575b50508160011b916000199060031b1c19161790555b6001600160a01b036120b96024600435016153e7565b16600052600b6020526040600020604460043501356000526020526040600020606460043501356000526020526040600020906001600160401b03811161057f576121088161206e8454614cbe565b6000601f821160011461214357819293600092612138575b5050600019600383901b1c191660019190911b179055005b013590508380612120565b601f198216938360005260206000209160005b86811061218d5750836001959610612173575b505050811b019055005b0135600019600384901b60f8161c19169055838080612169565b90926020600181928686013581550194019101612156565b01359050858061208e565b601f198216958360005260206000209160005b8881106121ff575083600195969798106121e5575b505050811b0190556120a3565b0135600019600384901b60f8161c191690558580806121d8565b909260206001819286860135815501940191016121c3565b604051633036aadb60e11b8152600490fd5b604051635d6e3bf560e11b8152600490fd5b612254915060203d602011610f8857610f788183614b82565b83611f52565b60405163dc3e890d60e01b8152600490fd5b612285915060203d602011610f8857610f788183614b82565b83611ee3565b3461026f5760c036600319011261026f576122a46149e3565b6102e0526044356001600160401b03811161026f576122c7903690600401614a25565b61038052610140526064356001600160401b03811161026f576122ee903690600401614a25565b610360526101c0526084356001600160401b03811161026f57612315903690600401614a25565b6101e05260c05260a4356001600160401b03811161026f5761233b903690600401614a25565b6103e0526104005261234b615825565b61036051610380510361281d576103e051610380510361281d5761236d615003565b5060006080525b61038051608051908110156111a45761ffff61239c6119ce600a936103e05161040051614ff3565b161161280b5761ffff6123bb6119ce6080516103e05161040051614ff3565b16610260526123d36080516103805161014051614ff3565b35158015612800575b6127ee576123f36080516103805161014051614ff3565b35600052600e60205260406000206024356000526020526040600020612422608051610360516101c051614ff3565b35600052602052600160ff600860406000206124446040518061042052614b15565b6001600160a01b038154166104205152838101546020610420510152600281015460406104205101526003810154606061042051015260048101546080610420510152600581015460a0610420510152600681015460c06104205101526124ad60078201614df2565b60e0610420510152015461ffff811661010061042051015260101c1680610120610420510152116105cb5760e0610420510151516124f36080516101e05160c051614ff3565b3510156105b9576080610420510151156105a75761251b6102605160c0610420510151614e47565b61ffff61010061042051015116106105955760005b6102605181101561277e576125526104205160c0608082015191015190614e47565b90612560826102e051614f18565b61257060c0610420510151614ec4565b60c061042051015261042051916125a960e06001600160a01b038551169401516125a26080516101e05160c051614ff3565b3590614e54565b51604051936125b785614b31565b60008552602085019081526040850191825282600052600f6020526125f0604060002095511515869060ff801983541691151516179055565b51610100600160a81b0385549160081b1690610100600160a81b031916178455519283516001600160401b03811161057f576126338161142c6001850154614cbe565b602094601f82116001146126fd5781600080516020615ca483398151915294939260019788936000926126f2575b5050600019600383901b1c191690821b179101555b6126896080516103805161014051614ff3565b356126e96126a0608051610360516101c051614ff3565b35916126b46080516101e05160c051614ff3565b35936126d360e06104205101516125a26080516101e05160c051614ff3565b51906040519586956102e0519460243588614ed3565b0390a101612530565b015190508880612661565b946001830160005260206000209560005b601f198416811061276657508260019788938493600080516020615ca4833981519152989796601f1981161061274d575b505050811b01910155612676565b015160001960f88460031b161c1916905588808061273f565b8282015188556001909701966020928301920161270e565b506127926080516103805161014051614ff3565b35600052600e602052604060002060243560005260205260406000206127c1608051610360516101c051614ff3565b3560005260205260066040600020016127de610260518254614e47565b9055600160805101608052612374565b604051632d05f9ad60e11b8152600490fd5b5061026051156123dc565b604051632795088960e11b8152600490fd5b6040517fff633a38000000000000000000000000000000000000000000000000000000008152600490fd5b3461026f57600036600319011261026f57612861614bf5565b60006001600160a01b0360055481198116600555167f8be0079c531659141344cd1fd0a4f28419497f9722a3daafe3b4186f6b6457e08280a3005b3461026f576128aa36614ab7565b90600052600d6020526040600020906000526020526020604060002054604051908152f35b3461026f57600036600319011261026f576020600a54604051908152f35b3461026f57602036600319011261026f57602061290b600435614c99565b6001600160a01b0360405191168152f35b3461026f5760a036600319011261026f576129356149e3565b6001600160401b0360243581811161026f57612955903690600401614a25565b929060443583811161026f5761296f903690600401614a25565b9390926064359160843590811161026f5761298e903690600401614a55565b929091612999615825565b6014871161280b5760005b60ff9081811690898210156111a4576129e58787878c8f8f976001988f6129d2836129dd956129d793614ff3565b6153e7565b93614ff3565b3590896150aa565b01166129a4565b3461026f576001600160a01b03612a0236614aeb565b919290921691826000526020926007845260406000205415801590612a78575b15612a6657600052600b835260406000209060005282526040600020906000528152612a516040600020614cf8565b9061104a604051928284938452830190614962565b60405163130d480960e11b8152600490fd5b50803014612a22565b3461026f57612a8f36614acd565b82939193156105dd5782600052600e60205260406000208260005260205260406000208460005260205260406000209060ff600860405193612ad085614b15565b6001600160a01b03815416855260018101546020860152600281015460408601526003810154606086015260048101546080860152600581015460a0860152600681015460c0860152612b2560078201614df2565b60e0860152015461ffff811661010085015260101c168061012084015260038110908115612dbf575b506105cb576080820151156105a75760c082015161ffff610100840151161115610595578060e08301515111156105b957612b92608083015160c084015190614e47565b916001600160a01b03815116612bac8360e0840151614e54565b5160405191612bba83614b31565b60018352602083019081526040830191825285600052600f602052612bf3604060002093511515849060ff801983541691151516179055565b51610100600160a81b0383549160081b1690610100600160a81b031916178255518051906001600160401b03821161057f57612c36826104366001860154614cbe565b602090601f8311600114612d2157612d0b96948694600185612cdc967f42e89266cd719a1cb78dad7fbf4d92d8cf6a28a8d7812203240d0614ee11b5b49e9a9660e096600092612d16575b5050600019600383901b1c191690821b179101555b89600052600e6020526040600020896000526020526040600020876000526020526006604060002001612cc98154614ec4565b9055612cd58633614f18565b0151614e54565b51926040519687968752602087015260408601526060850152608084015260e060a084015260e0830190614962565b3360c08301520390a1005b015190508f80612c81565b906001840160005260206000209160005b601f1985168110612da75750948694600180867f42e89266cd719a1cb78dad7fbf4d92d8cf6a28a8d7812203240d0614ee11b5b49e9a9660e096612d0b9d9b612cdc9a601f19811610612d8e575b505050811b01910155612c96565b015160001960f88460031b161c191690558f8080612d80565b91926020600181928685015181550194019201612d32565b600491501186612b4e565b3461026f57604036600319011261026f57612de36149e3565b602435906001600160401b039081831161026f57612e0d6001600160a01b03933690600401614a55565b939091612e18615825565b1690604051926301ffc9a760e01b8452633c0336bf60e21b60048501526020938481602481875afa908115610f8f57600091612fb0575b5015612f9e57826000526007845260406000205415612f8f575b8260005260108452604060002090851161057f57612e9185612e8b8354614cbe565b83614e7f565b6000601f8611600114612f0457946104e99291817fed1377794dd9be0b8f1b8a249cd7e4e811645cff17ab0452d791c8503c4fe65997600091612ef9575b508260011b906000198460031b1c19161790555b6040805195869586528501526040840191614fd2565b905083013588612ecf565b601f1986169082600052856000209160005b818110612f785750916104e9949391887fed1377794dd9be0b8f1b8a249cd7e4e811645cff17ab0452d791c8503c4fe659999410612f5e575b5050600182811b019055612ee3565b840135600019600385901b60f8161c191690558780612f4f565b919287600181928689013581550194019201612f16565b612f988361546c565b50612e69565b604051639ca516db60e01b8152600490fd5b612fd09150853d8711612fd6575b612fc88183614b82565b810190615454565b86612e4f565b503d612fbe565b3461026f576110db612fee36614a82565b90336001600160a01b03841614159283613025575b6040519361301085614b67565b60008552611142576110cb6110c68433615971565b61302e33615869565b613003565b3461026f57600036600319011261026f5760206040516daaeb6d7670e522a718067333cd4e8152f35b3461026f5760a036600319011261026f576130756149e3565b61307d614a0f565b6001600160401b03919060643583811161026f5761309f903690600401614a25565b9060843594851161026f576130bb6111a4953690600401614a25565b9490936044359161538e565b3461026f5760e036600319011261026f576130e06149e3565b60e0526044356001600160401b03811161026f57613102903690600401614a25565b61022052610120526064356001600160401b03811161026f57613129903690600401614a25565b61016052610280526084356001600160401b03811161026f57613150903690600401614a25565b6102a0526101805260a4356001600160401b03811161026f57613177903690600401614a25565b610340526103005260c4356001600160401b03811161026f5761319e903690600401614a55565b6103c0526102c0526131ae615825565b61016051610220510361281d5761016051610340510361281d576131d0615003565b5060006103a052600060a0525b6102205160a051818110156111a4576131f99161012051614ff3565b35158015613789575b6137455761321960a0516102205161012051614ff3565b35600052600e6020526040600020602435600052602052604060002061324860a0516101605161028051614ff3565b356000526020526040600020600160ff60086040519361326785614b15565b6001600160a01b038154168552838101546020860152600281015460408601526003810154606086015260048101546080860152600581015460a0860152600681015460c08601526132bb60078201614df2565b60e0860152015461ffff811661010085015260101c1680610120840152116105cb5760e0810151516132f660a0516102a05161018051614ff3565b3510156105b9576080810151156105a75760c081015161ffff6101008301511611156105955761332f608082015160c083015190614e47565b5061ffff6133496119ce60a0516103405161030051614ff3565b1661024052613361608082015160c083015190614e47565b6103a0526000905b610240518210156136d4576133836103a05160e051614f18565b30600052600b60205260406000206103a051600052602052604060002060243560005260205260406000206103c0516001600160401b03811161057f576133ce90612e8b8354614cbe565b60006103c051601f8111600114613663575060006103c0519182613655575b508160011b916000199060031b1c19161790555b6001600160a01b038151169161342860e08301516125a260a0516102a05161018051614ff3565b516040519361343685614b31565b6000855260208501908152604085019182526103a051600052600f602052613472604060002095511515869060ff801983541691151516179055565b51610100600160a81b0385549160081b1690610100600160a81b031916178455519283516001600160401b03811161057f576134b58161142c6001850154614cbe565b602094601f82116001146135e35790806001959686936000926135d8575b5050600019600383901b1c191690821b179101555b600080516020615ca483398151915261350a60a0516102205161012051614ff3565b3561351e60a0516101605161028051614ff3565b3561356b61353560a0516102a05161018051614ff3565b359161355260e08901516125a260a0516102a05161018051614ff3565b5160405194859460e051936103a0519260243588614ed3565b0390a17fca964bf6ed5f65d46ae0dc2fb5ff1633b757d906b8f25308eea2013bc6a2f486604051806135ac6103c0516102c0516024356103a051308661505f565b0390a16135bb6103a051614ec4565b6103a0526135cc60c0840151614ec4565b60c08401520190613369565b0151905087806134d3565b946001830160005260206000209560005b601f198416811061363d57509160019596869392849383601f19811610613624575b505050811b019101556134e8565b015160001960f88460031b161c19169055878080613616565b828201518855600190970196602092830192016135f4565b90506102c0510135856133ed565b90826000526020600020906000906102c051915b601f19851681106136bc575090839291600194601f198116106136a2575b505050811b019055613401565b0135600019600384901b60f8161c19169055858080613695565b82820135845560019093019260209182019101613677565b50506136e960a0516102205161012051614ff3565b35600052600e6020526040600020602435600052602052604060002061371860a0516101605161028051614ff3565b356000526020526006604060002001613735610240518254614e47565b9055600160a0510160a0526131dd565b604461375a60a0516102205161012051614ff3565b3561376e60a0516101605161028051614ff3565b356040519163a035ec6960e01b835260048301526024820152fd5b5061379d60a0516101605161028051614ff3565b3515613202565b3461026f576137b236614ab7565b90600052600f6020526001600160a01b0360406000205460081c1690600954818102918183041490151715611d9f57604080516001600160a01b039390931683526064909104602083015290f35b3461026f576111a461381136614a82565b91336001600160a01b03821603613835575b6138306110c68433615971565b6159df565b61383e33615869565b613823565b3461026f57602036600319011261026f576001600160a01b036138646149e3565b168060005260076020526040600020541561389157600052601060205261104a6110366040600020614cf8565b604051630f58058360e11b8152600490fd5b3461026f5760e036600319011261026f576138bc6149e3565b6084356001600160401b03811161026f576138db903690600401614a55565b909160a4356001600160401b03811161026f576138fc903690600401614a55565b9260c4356001600160401b03811161026f5761391c903690600401614a55565b93604435156105dd57604435600052600e6020526040600020602435600052602052604060002060643560005260205260406000209460086040519661396188614b15565b6001600160a01b03815416885260018101546020890152600281015460408901526003810154606089015260048101546080890152600581015460a0890152600681015460c08901526139b660078201614df2565b60e08901520154610100870190600560ff61ffff92838116855260101c16806101208b0152036105cb576080880151156105a75760c0880151915116111561059557613a2892613a16613a0a36878c614bbe565b9161125b368b8a614bbe565b92606435916044359160243591615509565b15610f0b576001600160a01b03613a48608085015160c086015190614e47565b9351169460405195613a5987614b31565b6001875260208701908152613a6f368786614bbe565b906040880191825285600052600f602052613a9e604060002098511515899060ff801983541691151516179055565b51610100600160a81b0388549160081b1690610100600160a81b031916178755519586516001600160401b03811161057f57613ae18161142c6001850154614cbe565b6020601f8211600114613bdf5791600182612d0b979695936020957f42e89266cd719a1cb78dad7fbf4d92d8cf6a28a8d7812203240d0614ee11b5b49c600092613bd4575b5050600019600383901b1c191690821b179101555b604435600052600e825260406000206024356000528252604060002060643560005282526006604060002001613b718154614ec4565b90558260405193849283378101600c815203019020600160ff19825416179055613b9b8333614f18565b6040519384936024358552604435602086015260643560408601526000196060860152608085015260e060a085015260e0840191614fd2565b015190508c80613b26565b6001830160005260206000209860005b601f1984168110613c5f57506001837f42e89266cd719a1cb78dad7fbf4d92d8cf6a28a8d7812203240d0614ee11b5b49b602096948394612d0b9b9a9997601f19811610613c46575b505050811b01910155613b3b565b015160001960f88460031b161c191690558c8080613c38565b828201518b556001909a019960209283019201613bef565b3461026f57604036600319011261026f577fb744dc8fdcd17f69ad99fdabe0fe0ed8fea41193727ed2123d997550eaae918f613cb16149e3565b60243590613cbd614bf5565b6001600160a01b0381166001600160a01b03196008541617600855816009556104e960405192839283602090939291936001600160a01b0360408201951681520152565b3461026f5760031960e03682011261026f57613d1b6149e3565b613d236149f9565b916001600160401b036064351161026f576080906064353603011261026f576084356001600160401b03811161026f57613d61903690600401614a25565b906102005260a4356001600160401b03811161026f57613d85903690600401614a25565b60c4949194356001600160401b03811161026f57613da7903690600401614a25565b959061032052613db5615825565b600a5460006101005290613dce600460643501806153fb565b6101a052506000955b6101a05187101561457e576024356000908152600d60205260409020613e0688611862600460643501806153fb565b35600052602052604060002092613e1d8454614ec4565b809455613e38886118626024606435016064356004016153fb565b358403611dbc5760005b613e50898961020051615430565b9050811015613f2257613ee0868587613eb78d613eaf613ea58f613e80613e868b613e8087829561020051615430565b90615373565b9099909590613e9e82611862600460643501806153fb565b3599615430565b9690923691614bbe565b943691614bbe565b9160405193613ec585614b4c565b60048552633078303160e01b60208601528c60243591615509565b15610f0b576020613ef982613e808c8c61020051615430565b91908260405193849283378101600c815203019020906001918260ff1982541617905501613e42565b5090969092613f3a82611862600460643501806153fb565b35600052600e6020526040600020602435600052602052604060002081600052602052604060002061012060ff600860405193613f7685614b15565b6001600160a01b03815416855260018101546020860152600281015460408601526003810154606086015260048101546080860152600581015460a0860152600681015460c0860152613fcb60078201614df2565b60e0860152015461ffff811661010085015260101c16910152613ff5611982838b61032051614ff3565b15614551576001614007838786615430565b905011600014614546576004610100525b61402b82611862600460643501806153fb565b3593600181018111611d9f57889461405961ffff6119d36119ce8761186260648035016064356004016153fb565b614064858988615430565b9161407f6119ce8861186260648035016064356004016153fb565b936001600160a01b036040519a6140958c614b15565b168a5260243560208b015260408a01528560608a01526001850160808a015260a0890152600060c08901526140c982614ddb565b916140d76040519384614b82565b80835260208301368260051b84011161026f5782905b8260051b84018210614507575050505061413c929161ffff9160e08901521661010087015260ff610100511661012087015261ffff611a646119ce8661186260648035016064356004016153fb565b9361415083611862600460643501806153fb565b35600052600e602052604060002060243560005260205260406000208260005260205260406000206001600160a01b038251166001600160a01b03198254161781556020820151600182015560408201516002820155606082015160038201556080820151600482015560a0820151600582015560c0820151600682015560e082015180519068010000000000000000821161057f576007830154826007850155808310614488575b5060209094939401906007830160005260206000206000925b8284106143a5575050505060080161ffff6101008401511681549062ff000061012086015160101b169162ffffff19161717905561425e836118626064356004016064356004016153fb565b3591614278846118626044606435016064356004016153fb565b35906142946119ce8661186260648035016064356004016153fb565b9061ffff60a06080830151920151926142ae888c8b615430565b959096604051986024358a5260208a01526040890152606088015216608086015260a085015260c084015261012060e084015280610120840152610140808401908260051b8501019280926000915b81831061434757505050505081600193927f0f70b8bcce8b5c011001183817b8553eeff4c35b5dcff829aaefbc6c037b90499260ff61010051166101008301520390a10195613dd7565b909192939461013f19878203018552601e19823603018635121561026f578186350190602082359201916001600160401b03811161026f57803603831361026f576143986020928392600195614fd2565b97019501930191906142fd565b80969596518051906001600160401b03821161057f576143c982611c5e8654614cbe565b602090601f831160011461441857928260019493602093869560009261440d575b5050600019600383901b1c191690841b1785555b01920193019290959495614212565b0151905038806143ea565b908460005260206000209160005b601f1985168110614470575083602093600196938796938794601f19811610614457575b505050811b0185556143fe565b015160001960f88460031b161c1916905538808061444a565b91926020600181928685015181550194019201614426565b600784016000526020600020908382015b81830181106144a95750506141f9565b806144b660019254614cbe565b806144c3575b5001614499565b601f9081811184146144dc575050600081555b386144bc565b836144f892846000526020600020920160051c82019101614e68565b600060208120818355556144d6565b81356001600160401b03811161026f5736601f82870101121561026f57602091829161453b90369088018035908501614bbe565b8152019101906140ed565b600361010052614018565b600161455e838786615430565b90501160001461457357600161010052614018565b600061010052614018565b600a839055005b3461026f57604036600319011261026f5761459e6149e3565b602435906145ab81615869565b6001600160a01b0380806145be85614c99565b169216918083146146b957803314908115614694575b5015614629578260005260036020526040600020826001600160a01b031982541617905561460183614c99565b167f8c5be1e5ebec7d5bd14f71427d1e84f3dd0314c0f7b2291e5b200ac8c7c3b925600080a4005b60405162461bcd60e51b815260206004820152603e60248201527f4552433732313a20617070726f76652063616c6c6572206973206e6f7420746f60448201527f6b656e206f776e6572206e6f7220617070726f76656420666f7220616c6c00006064820152608490fd5b9050600052600460205260406000203360005260205260ff60406000205416846145d4565b60405162461bcd60e51b815260206004820152602160248201527f4552433732313a20617070726f76616c20746f2063757272656e74206f776e656044820152603960f91b6064820152608490fd5b3461026f57606036600319011261026f57600480356000908152600e60209081526040808320602435845282528083206044358452825290912080546001820154600283015460038401549584015460058501546006860154600887015497986001600160a01b039096169761ffff81169760109190911c60ff16966147d09695929492909161479a90600701614df2565b956040519b8c9b8c528b015260408a01526060890152608088015260a087015260c08601526101408060e0870152850190614987565b916101008401526101208301520390f35b3461026f57602036600319011261026f57602061290b600435614d9e565b3461026f57600036600319011261026f576040516000805461482081614cbe565b8084529060019081811690811561179057506001146148495761104a8461103681860382614b82565b600080805292507f290decd9548b62a8d60345a988386fc84ba6bc95484008f6362f93160ef3e5635b82841061488a57505050810160200161103682611727565b80546020858701810191909152909301928101614872565b3461026f57602036600319011261026f576004359063ffffffff60e01b821680920361026f5760209163152a902d60e11b811490811561492e575b81156148eb575b5015158152f35b633c0336bf60e21b81149150811561491d575b811561490c575b50836148e4565b6301ffc9a760e01b14905083614905565b635b5e139f60e01b811491506148fe565b6370e25f4960e01b811491506148dd565b60005b8381106149525750506000910152565b8181015183820152602001614942565b9060209161497b8151809281855285808601910161493f565b601f01601f1916010190565b908082519081815260208091019281808460051b8301019501936000915b8483106149b55750505050505090565b90919293949584806149d3600193601f198682030187528a51614962565b98019301930191949392906149a5565b600435906001600160a01b038216820361026f57565b604435906001600160a01b038216820361026f57565b602435906001600160a01b038216820361026f57565b9181601f8401121561026f578235916001600160401b03831161026f576020808501948460051b01011161026f57565b9181601f8401121561026f578235916001600160401b03831161026f576020838186019501011161026f57565b606090600319011261026f576001600160a01b0390600435828116810361026f5791602435908116810361026f579060443590565b604090600319011261026f576004359060243590565b608090600319011261026f5760043590602435906044359060643590565b606090600319011261026f576004356001600160a01b038116810361026f57906024359060443590565b61014081019081106001600160401b0382111761057f57604052565b606081019081106001600160401b0382111761057f57604052565b604081019081106001600160401b0382111761057f57604052565b602081019081106001600160401b0382111761057f57604052565b90601f801991011681019081106001600160401b0382111761057f57604052565b6001600160401b03811161057f57601f01601f191660200190565b929192614bca82614ba3565b91614bd86040519384614b82565b82948184528183011161026f578281602093846000960137010152565b6001600160a01b03600554163303614c0957565b606460405162461bcd60e51b815260206004820152602060248201527f4f776e61626c653a2063616c6c6572206973206e6f7420746865206f776e65726044820152fd5b15614c5457565b60405162461bcd60e51b815260206004820152601860248201527f4552433732313a20696e76616c696420746f6b656e20494400000000000000006044820152606490fd5b60005260026020526001600160a01b0360406000205416614cbb811515614c4d565b90565b90600182811c92168015614cee575b6020831014614cd857565b634e487b7160e01b600052602260045260246000fd5b91607f1691614ccd565b9060405191826000825492614d0c84614cbe565b908184526001948581169081600014614d7b5750600114614d38575b5050614d3692500383614b82565b565b9093915060005260209081600020936000915b818310614d63575050614d3693508201013880614d28565b85548884018501529485019487945091830191614d4b565b915050614d3694506020925060ff191682840152151560051b8201013880614d28565b614dc16110168260005260026020526001600160a01b0360406000205416151590565b60005260036020526001600160a01b036040600020541690565b6001600160401b03811161057f5760051b60200190565b908154614dfe81614ddb565b92614e0c6040519485614b82565b818452600090815260208082208186015b848410614e2b575050505050565b6001838192614e3985614cf8565b815201920193019290614e1d565b91908201809211611d9f57565b8051821015610b735760209160051b010190565b818110614e73575050565b60008155600101614e68565b9190601f8111614e8e57505050565b614d36926000526020600020906020601f840160051c83019310614eba575b601f0160051c0190614e68565b9091508190614ead565b6000198114611d9f5760010190565b959193614f11936001600160a01b039560c097939a999a8952602089015260408801526060870152608086015260e060a086015260e0850190614962565b9416910152565b614f388260005260026020526001600160a01b0360406000205416151590565b614f8d578160005260026020526001600160a01b036040600020911690816001600160a01b031982541617905560007fddf252ad1be2c89b69c2b068fc378daa952ba7f163c4a11628f55a4df523b3ef8180a4565b60405162461bcd60e51b815260206004820152601c60248201527f4552433732313a20746f6b656e20616c7265616479206d696e746564000000006044820152606490fd5b908060209392818452848401376000828201840152601f01601f1916010190565b9190811015610b735760051b0190565b6040519061501082614b15565b816101206000918281528260208201528260408201528260608201528260808201528260a08201528260c0820152606060e0820152826101008201520152565b3561ffff8116810361026f5790565b90926080926001600160a01b03614cbb9795168352602083015260408201528160608201520191614fd2565b9081602091031261026f57516001600160a01b038116810361026f5790565b9594959391939290926150bb615825565b6001600160a01b0390818516908130149160009281845260209260078452604095868620541580159061533a575b156153295786516331a9108f60e11b8152600481018c9052918583602481885afa92831561531f5787936152fe575b5081169116036152ed57806152d9575b6152c157808352600b825283832088845282528383208584528252615165615151858520614cf8565b85519061515d82614b67565b8582526157d0565b156152b0578252600b815282822087835281528282208483528152828220916001600160401b038a1161529c576151a08a610dd68554614cbe565b8091601f8b1160011461520f575091896151ff9694927fca964bf6ed5f65d46ae0dc2fb5ff1633b757d906b8f25308eea2013bc6a2f4869a9b969491615204575b508560011b906000198760031b1c19161790555b519586958661505f565b0390a1565b9050840135386151e1565b8382528082209291601f198c16915b828210615284575050918a9593917fca964bf6ed5f65d46ae0dc2fb5ff1633b757d906b8f25308eea2013bc6a2f4869a9b6151ff9896941061526a575b5050600185811b0190556151f5565b850135600019600388901b60f8161c19169055388061525b565b80600185968294968c0135815501950193019061521e565b634e487b7160e01b81526041600452602490fd5b8351638329890b60e01b8152600490fd5b83516331a5388b60e01b815260048101899052602490fd5b50878352600f825260ff8484205416615128565b84516330cd747160e01b8152600490fd5b8291935061531890873d8911610f8857610f788183614b82565b9290615118565b88513d89823e3d90fd5b865163a710429d60e01b8152600490fd5b50826150e9565b903590601e198136030182121561026f57018035906001600160401b03821161026f5760200191813603831361026f57565b90821015610b735761538a9160051b810190615341565b9091565b929491909396959661539e615825565b60ff811161280b5760005b8181106153bb57505050505050509050565b806153e16153cc600193858b614ff3565b356153d8838d89615373565b91878b8b6150aa565b016153a9565b356001600160a01b038116810361026f5790565b903590601e198136030182121561026f57018035906001600160401b03821161026f57602001918160051b3603831361026f57565b90821015610b735761538a9160051b8101906153fb565b35801515810361026f5790565b9081602091031261026f5751801515810361026f5790565b60008181526007602052604081205461550457600654680100000000000000008110156154f05760018101806006558110156154dc5790826040927ff652222313e28459528d920b65115c16c04f3efc82aaedc97be59f3f377c0d3f015560065492815260076020522055600190565b634e487b7160e01b82526032600452602482fd5b634e487b7160e01b82526041600452602482fd5b905090565b9291959394909460ff60405160208187516155278183858c0161493f565b8101600c8152030190205416610f1d5761559e94610d589161559261557f60405195869360208501986001600160a01b03809d169d8e8b5260408701526060860152608085015260c060a085015260e0840190614962565b601f1993848483030160c0850152614962565b03908101835282614b82565b161490565b614cbb916155f09160405160208101917f19457468657265756d205369676e6564204d6573736167653a0a3332000000008352603c820152603c81526155e881614b31565b51902061570d565b91909160058110156156f757806156045750565b600181036156515760405162461bcd60e51b815260206004820152601860248201527f45434453413a20696e76616c6964207369676e617475726500000000000000006044820152606490fd5b6002810361569e5760405162461bcd60e51b815260206004820152601f60248201527f45434453413a20696e76616c6964207369676e6174757265206c656e677468006044820152606490fd5b6003146156a757565b60405162461bcd60e51b815260206004820152602260248201527f45434453413a20696e76616c6964207369676e6174757265202773272076616c604482015261756560f01b6064820152608490fd5b634e487b7160e01b600052602160045260246000fd5b9060418151146000146157375761538a916020820151906060604084015193015160001a90615741565b5050600090600290565b9291907f7fffffffffffffffffffffffffffffff5d576e7357a4501ddfe92f46681b20a083116157c45791608094939160ff602094604051948552168484015260408301526060820152600093849182805260015afa156157b75781516001600160a01b038116156157b1579190565b50600190565b50604051903d90823e3d90fd5b50505050600090600390565b90604051916020926157fe8482816157f1818301968781519384920161493f565b8101038084520182614b82565b5190209161581e6040519182816157f1818301968781519384920161493f565b5190201490565b6001600160a01b037f000000000000000000000000000000000000000000000000000000000000000016330361585757565b60405163c183bcef60e01b8152600490fd5b6daaeb6d7670e522a718067333cd4e90813b615883575050565b60206001600160a01b0391604460405180948193633185c44d60e21b835230600484015216958660248301525afa908115610f8f576000916158e1575b50156158c95750565b60249060405190633b79c77360e21b82526004820152fd5b6158f9915060203d8111612fd657612fc88183614b82565b386158c0565b1561590657565b60405162461bcd60e51b815260206004820152602e60248201527f4552433732313a2063616c6c6572206973206e6f7420746f6b656e206f776e6560448201527f72206e6f7220617070726f7665640000000000000000000000000000000000006064820152608490fd5b906001600160a01b03808061598584614c99565b169316918383149384156159b8575b5083156159a2575b50505090565b6159ae91929350614d9e565b161438808061599c565b909350600052600460205260406000208260005260205260ff604060002054169238615994565b6159e883614c99565b916001600160a01b0392838093169283911603615ae3578216918215615a92577fddf252ad1be2c89b69c2b068fc378daa952ba7f163c4a11628f55a4df523b3ef906000908582526003602052858260408120926001600160a01b031993848154169055615a5583614c99565b167f8c5be1e5ebec7d5bd14f71427d1e84f3dd0314c0f7b2291e5b200ac8c7c3b9258280a4858252600260205284604083209182541617905580a4565b60405162461bcd60e51b8152602060048201526024808201527f4552433732313a207472616e7366657220746f20746865207a65726f206164646044820152637265737360e01b6064820152608490fd5b60405162461bcd60e51b815260206004820152602560248201527f4552433732313a207472616e736665722066726f6d20696e636f72726563742060448201526437bbb732b960d91b6064820152608490fd5b9293600093909291803b15615c9857948491615b919660405180948193630a85bd0160e11b978884523360048501526001600160a01b0380921660248501526044840152608060648401528260209b8c976084830190614962565b0393165af1849181615c54575b50615c43575050503d600014615c3b573d615bb881614ba3565b90615bc66040519283614b82565b81528091833d92013e5b80519182615c385760405162461bcd60e51b815260206004820152603260248201527f4552433732313a207472616e7366657220746f206e6f6e20455243373231526560448201527131b2b4bb32b91034b6b83632b6b2b73a32b960711b6064820152608490fd5b01fd5b506060615bd0565b6001600160e01b0319161492509050565b9091508581813d8311615c91575b615c6c8183614b82565b81010312615c8d57516001600160e01b031981168103615c8d579038615b9e565b8480fd5b503d615c62565b50505091505060019056fe19a1cf5d41956867e3bc0d76809b098762c5b649e9d2fb3d94619c32aaf0eceba264697066735822122031e8d6743883785c2a35751f5eef82ed9e4f776362770f9a058f509d1a0a9c9264736f6c63430008110033",
  "linkReferences": {},
  "deployedLinkReferences": {}
}