{
  "_format": "hh-sol-artifact-1",
  "contractName": "PaymentWrapper",
  "sourceName": "contracts/NFTea/payment.sol",
  "abi": [
    {
      "inputs": [],
      "stateMutability": "nonpayable",
      "type": "constructor"
    },
    {
      "anonymous": false,
      "inputs": [
        {
          "indexed": false,
          "internalType": "address",
          "name": "from",
          "type": "address"
        },
        {
          "indexed": false,
          "internalType": "uint256",
          "name": "amount",
          "type": "uint256"
        },
        {
          "indexed": false,
          "internalType": "uint256",
          "name": "tokenId",
          "type": "uint256"
        }
      ],
      "name": "PaymentMade",
      "type": "event"
    },
    {
      "anonymous": false,
      "inputs": [
        {
          "indexed": false,
          "internalType": "address",
          "name": "from",
          "type": "address"
        },
        {
          "indexed": false,
          "internalType": "uint256",
          "name": "to",
          "type": "uint256"
        }
      ],
      "name": "Withdrawn",
      "type": "event"
    },
    {
      "inputs": [
        {
          "internalType": "address",
          "name": "",
          "type": "address"
        }
      ],
      "name": "receiverBalance",
      "outputs": [
        {
          "internalType": "uint256",
          "name": "",
          "type": "uint256"
        }
      ],
      "stateMutability": "view",
      "type": "function"
    },
    {
      "inputs": [
        {
          "internalType": "address",
          "name": "addr",
          "type": "address"
        }
      ],
      "name": "setAdmin",
      "outputs": [],
      "stateMutability": "nonpayable",
      "type": "function"
    },
    {
      "inputs": [
        {
          "internalType": "address",
          "name": "addr",
          "type": "address"
        }
      ],
      "name": "setReceiverAddress",
      "outputs": [],
      "stateMutability": "nonpayable",
      "type": "function"
    },
    {
      "inputs": [
        {
          "internalType": "contract ImQuark",
          "name": "addr",
          "type": "address"
        }
      ],
      "name": "setmQuark",
      "outputs": [],
      "stateMutability": "nonpayable",
      "type": "function"
    },
    {
      "inputs": [
        {
          "internalType": "address",
          "name": "signer",
          "type": "address"
        },
        {
          "internalType": "uint256",
          "name": "projectId",
          "type": "uint256"
        },
        {
          "internalType": "uint256",
          "name": "templateId",
          "type": "uint256"
        },
        {
          "internalType": "uint256",
          "name": "collectionId",
          "type": "uint256"
        },
        {
          "internalType": "bytes",
          "name": "signature",
          "type": "bytes"
        },
        {
          "internalType": "string",
          "name": "uri",
          "type": "string"
        },
        {
          "internalType": "bytes",
          "name": "salt",
          "type": "bytes"
        }
      ],
      "name": "voluntarilyPayment",
      "outputs": [],
      "stateMutability": "payable",
      "type": "function"
    },
    {
      "inputs": [
        {
          "internalType": "uint256",
          "name": "amount",
          "type": "uint256"
        }
      ],
      "name": "withdraw",
      "outputs": [],
      "stateMutability": "nonpayable",
      "type": "function"
    }
  ],
  "bytecode": "0x6080806040523461002857600080546001600160a01b03191633179055610881908161002e8239f35b600080fdfe61010080604052600436101561001457600080fd5b60008060e052803560e01c9182632e1a7d4d146105ae575050806344c53c9614610572578063704b6c021461052e5780638279c7db146104e8578063ee547c5b146100fb5763f67807341461006857600080fd5b346100f55760203660031901126100f5576004356001600160a01b038082168092036100f55760e051541633036100b0576001600160a01b0319600254161760025560e05180f35b60405162461bcd60e51b815260206004820152601360248201527f756e617574686f72697a656420616363657373000000000000000000000000006044820152606490fd5b60e05180fd5b60e03660031901126100f55761010f610756565b60843567ffffffffffffffff81116100f55761012f903690600401610771565b60805260c05260a43567ffffffffffffffff81116100f557610155903690600401610771565b60a05260c43567ffffffffffffffff81116100f557610178903690600401610771565b91906001600160a01b036002541691604051926308d27af560e01b845260443560048501526024356024850152606435604485015260e05184606481845afa94851561033a5760e051948596610356575b50813b156100f557610242966102586001600160a01b0392604051998a9687958695631e0d854160e01b875216600486015260243560248601526044356044860152606435606486015260e0608486015261022c60e4860160805160c051610807565b8581036003190160a487015260a0519091610807565b906003198483030160c485015260e05197610807565b039160e051905af192831561033a5761027693610347575b50610828565b6001600160a01b0360025416803b156100f55760405190632142170760e11b82523060048301523360248301528260448301528160648160e05180945af1801561033a57610324575b7fc65a4e529c0450a515882508bea7ee3485fbfdf8436e0bd13dc38dfbc859b1cb6060836001600160a01b036001541660e051526003602052604060e05120610309348254610828565b9055604051903382523460208301526040820152a160e05180f35b61032d9061079f565b60e05180156102bf575b80fd5b6040513d60e051823e3d90fd5b6103509061079f565b83610270565b9095503d8095823e61036885826107c9565b6101408186810103126100f55780516001600160a01b038116036100f55760808101519060c08101519560e08201519067ffffffffffffffff82116100f557808301601f8385010112156100f557818301519067ffffffffffffffff82116104d05760208260051b92604051906103e1838601836107c9565b815201908085016020848688010101116100f557602084860101915b6020848688010101831061043657505050505061010081015161ffff8116036100f557610120015160ff8116036100f5579394876101c9565b825167ffffffffffffffff81116100f557828701603f82888a01010112156100f55760208187890101015161046a816107eb565b9161047860405193846107c9565b818352848901604083838b8d01010101116100f55760e0515b888a8483106104b657505060e0516020938501840152505090825292830192016103fd565b828460209493604093010101015182828701015201610491565b634e487b7160e01b60e051526041600452602460e051fd5b346100f55760203660031901126100f557610501610756565b6001600160a01b03908160e051541633036100b057166001600160a01b0319600154161760015560e05180f35b346100f55760203660031901126100f557610547610756565b60e051546001600160a01b0380821633036100b05760e0519216906001600160a01b03191617815580f35b346100f55760203660031901126100f5576001600160a01b03610593610756565b1660e0515260036020526020604060e0512054604051908152f35b3461075257602091826003193601126103375750600435906001600160a01b0360015416330361072157503360e0515260038252604060e051205481116106dc573360e051526003825260e051604081208054918383039283116106c557505560e05180808084335af13d156106c0573d610628816107eb565b9061063660405192836107c9565b815260e0513d9185013e5b1561067b577f7084f5476618d8e60b11ef0d7d3f06914655adb8793e28ff7f018d4c76d505d591604091825191338352820152a160e05180f35b60405162461bcd60e51b815260048101839052601460248201527f4661696c656420746f2073656e642045746865720000000000000000000000006044820152606490fd5b610641565b634e487b7160e01b9052601160045260e051602490fd5b60405162461bcd60e51b815260048101839052601460248201527f696e73756666696369656e742062616c616e63650000000000000000000000006044820152606490fd5b62461bcd60e51b815260048101839052600c60248201526b3737ba103932b1b2b4bb32b960a11b6044820152606490fd5b5080fd5b600435906001600160a01b038216820361076c57565b600080fd5b9181601f8401121561076c5782359167ffffffffffffffff831161076c576020838186019501011161076c57565b67ffffffffffffffff81116107b357604052565b634e487b7160e01b600052604160045260246000fd5b90601f8019910116810190811067ffffffffffffffff8211176107b357604052565b67ffffffffffffffff81116107b357601f01601f191660200190565b908060209392818452848401376000828201840152601f01601f1916010190565b9190820180921161083557565b634e487b7160e01b600052601160045260246000fdfea2646970667358221220ec75fa56c71c587e7a41f21c24ce0ea7e4c8b0a71e712375c73e26bfd9d5552b64736f6c63430008110033",
  "linkReferences": {},
  "deployedLinkReferences": {}
}