{
  "_format": "hh-sol-artifact-1",
  "contractName": "PaymentWrapper",
  "sourceName": "contracts/NFTea/payment.sol",
  "abi": [
    {
      "inputs": [],
      "stateMutability": "nonpayable",
      "type": "constructor"
    },
    {
      "anonymous": false,
      "inputs": [
        {
          "indexed": false,
          "internalType": "address",
          "name": "from",
          "type": "address"
        },
        {
          "indexed": false,
          "internalType": "uint256",
          "name": "amount",
          "type": "uint256"
        },
        {
          "indexed": false,
          "internalType": "uint256",
          "name": "tokenId",
          "type": "uint256"
        }
      ],
      "name": "PaymentMade",
      "type": "event"
    },
    {
      "anonymous": false,
      "inputs": [
        {
          "indexed": false,
          "internalType": "address",
          "name": "from",
          "type": "address"
        },
        {
          "indexed": false,
          "internalType": "uint256",
          "name": "to",
          "type": "uint256"
        }
      ],
      "name": "Withdrawn",
      "type": "event"
    },
    {
      "inputs": [
        {
          "internalType": "address",
          "name": "",
          "type": "address"
        }
      ],
      "name": "receiverBalance",
      "outputs": [
        {
          "internalType": "uint256",
          "name": "",
          "type": "uint256"
        }
      ],
      "stateMutability": "view",
      "type": "function"
    },
    {
      "inputs": [
        {
          "internalType": "address",
          "name": "addr",
          "type": "address"
        }
      ],
      "name": "setAdmin",
      "outputs": [],
      "stateMutability": "nonpayable",
      "type": "function"
    },
    {
      "inputs": [
        {
          "internalType": "address",
          "name": "addr",
          "type": "address"
        }
      ],
      "name": "setReceiverAddress",
      "outputs": [],
      "stateMutability": "nonpayable",
      "type": "function"
    },
    {
      "inputs": [
        {
          "internalType": "contract ImQuark",
          "name": "addr",
          "type": "address"
        }
      ],
      "name": "setmQuark",
      "outputs": [],
      "stateMutability": "nonpayable",
      "type": "function"
    },
    {
      "inputs": [
        {
          "internalType": "address",
          "name": "signer",
          "type": "address"
        },
        {
          "internalType": "uint256",
          "name": "projectId",
          "type": "uint256"
        },
        {
          "internalType": "uint256",
          "name": "templateId",
          "type": "uint256"
        },
        {
          "internalType": "uint256",
          "name": "collectionId",
          "type": "uint256"
        },
        {
          "internalType": "bytes",
          "name": "signature",
          "type": "bytes"
        },
        {
          "internalType": "string",
          "name": "uri",
          "type": "string"
        }
      ],
      "name": "voluntarilyPayment",
      "outputs": [],
      "stateMutability": "payable",
      "type": "function"
    },
    {
      "inputs": [
        {
          "internalType": "uint256",
          "name": "amount",
          "type": "uint256"
        }
      ],
      "name": "withdraw",
      "outputs": [],
      "stateMutability": "nonpayable",
      "type": "function"
    }
  ],
  "bytecode": "0x6080806040523461002857600080546001600160a01b0319163317905561083c908161002e8239f35b600080fdfe60c080604052600436101561001357600080fd5b60008060a052803560e01c9182632e1a7d4d14610569575050806344c53c961461052d578063704b6c02146104e95780638279c7db146104a3578063dc02f347146100fa5763f67807341461006757600080fd5b346100f45760203660031901126100f4576004356001600160a01b038082168092036100f45760a051541633036100af576001600160a01b0319600254161760025560a05180f35b60405162461bcd60e51b815260206004820152601360248201527f756e617574686f72697a656420616363657373000000000000000000000000006044820152606490fd5b60a05180fd5b60c03660031901126100f45761010e610711565b60843567ffffffffffffffff81116100f45761012e90369060040161072c565b60a49291923567ffffffffffffffff81116100f45761015190369060040161072c565b6080526001600160a01b036002541691604051926308d27af560e01b845260016004850152600260248501526002604485015260a05184606481845afa9485156102f55760a051948596610311575b50813b156100f4576001600160a01b03906102136101fa604051998a9687958695630364c47560e01b875216600486015260243560248601526044356044860152606435606486015260c0608486015260c48501916107c2565b8281036003190160a484015260a05160805190976107c2565b039160a051905af19283156102f55761023193610302575b506107e3565b6001600160a01b0360025416803b156100f45760405190632142170760e11b82523060048301523360248301528260448301528160648160a05180945af180156102f5576102df575b7fc65a4e529c0450a515882508bea7ee3485fbfdf8436e0bd13dc38dfbc859b1cb6060836001600160a01b036001541660a051526003602052604060a051206102c43482546107e3565b9055604051903382523460208301526040820152a160a05180f35b6102e89061075a565b60a051801561027a575b80fd5b6040513d60a051823e3d90fd5b61030b9061075a565b8361022b565b9095503d8095823e6103238582610784565b6101408186810103126100f45780516001600160a01b038116036100f45760808101519060c08101519560e08201519067ffffffffffffffff82116100f457808301601f8385010112156100f457818301519067ffffffffffffffff821161048b5760208260051b926040519061039c83860183610784565b815201908085016020848688010101116100f457602084860101915b602084868801010183106103f157505050505061010081015161ffff8116036100f457610120015160ff8116036100f4579394876101a0565b825167ffffffffffffffff81116100f457828701603f82888a01010112156100f457602081878901010151610425816107a6565b916104336040519384610784565b818352848901604083838b8d01010101116100f45760a0515b888a84831061047157505060a0516020938501840152505090825292830192016103b8565b82846020949360409301010101518282870101520161044c565b634e487b7160e01b60a051526041600452602460a051fd5b346100f45760203660031901126100f4576104bc610711565b6001600160a01b03908160a051541633036100af57166001600160a01b0319600154161760015560a05180f35b346100f45760203660031901126100f457610502610711565b60a051546001600160a01b0380821633036100af5760a0519216906001600160a01b03191617815580f35b346100f45760203660031901126100f4576001600160a01b0361054e610711565b1660a0515260036020526020604060a0512054604051908152f35b3461070d57602091826003193601126102f25750600435906001600160a01b036001541633036106dc57503360a0515260038252604060a05120548111610697573360a051526003825260a0516040812080549183830392831161068057505560a05180808084335af13d1561067b573d6105e3816107a6565b906105f16040519283610784565b815260a0513d9185013e5b15610636577f7084f5476618d8e60b11ef0d7d3f06914655adb8793e28ff7f018d4c76d505d591604091825191338352820152a160a05180f35b60405162461bcd60e51b815260048101839052601460248201527f4661696c656420746f2073656e642045746865720000000000000000000000006044820152606490fd5b6105fc565b634e487b7160e01b9052601160045260a051602490fd5b60405162461bcd60e51b815260048101839052601460248201527f696e73756666696369656e742062616c616e63650000000000000000000000006044820152606490fd5b62461bcd60e51b815260048101839052600c60248201526b3737ba103932b1b2b4bb32b960a11b6044820152606490fd5b5080fd5b600435906001600160a01b038216820361072757565b600080fd5b9181601f840112156107275782359167ffffffffffffffff8311610727576020838186019501011161072757565b67ffffffffffffffff811161076e57604052565b634e487b7160e01b600052604160045260246000fd5b90601f8019910116810190811067ffffffffffffffff82111761076e57604052565b67ffffffffffffffff811161076e57601f01601f191660200190565b908060209392818452848401376000828201840152601f01601f1916010190565b919082018092116107f057565b634e487b7160e01b600052601160045260246000fdfea2646970667358221220119679aa4a418b5ebab9735f2dbee9344f456a521722db07e528c67c5562087f64736f6c63430008110033",
  "linkReferences": {},
  "deployedLinkReferences": {}
}